{
  "address": "0x5FbDB2315678afecb367f032d93F642f64180aa3",
  "abi": [
    {
      "inputs": [],
      "stateMutability": "nonpayable",
      "type": "constructor"
    },
    {
      "inputs": [],
      "name": "configuration",
      "outputs": [
        {
          "internalType": "uint64",
          "name": "chainSelector_",
          "type": "uint64"
        },
        {
          "internalType": "contract IRouterClient",
          "name": "sourceRouter_",
          "type": "address"
        },
        {
          "internalType": "contract IRouterClient",
          "name": "destinationRouter_",
          "type": "address"
        },
        {
          "internalType": "contract WETH9",
          "name": "wrappedNative_",
          "type": "address"
        },
        {
          "internalType": "contract LinkToken",
          "name": "linkToken_",
          "type": "address"
        },
        {
          "internalType": "contract BurnMintERC677Helper",
          "name": "ccipBnM_",
          "type": "address"
        },
        {
          "internalType": "contract BurnMintERC677Helper",
          "name": "ccipLnM_",
          "type": "address"
        }
      ],
      "stateMutability": "view",
      "type": "function"
    },
    {
      "inputs": [
        {
          "internalType": "uint64",
          "name": "chainSelector",
          "type": "uint64"
        }
      ],
      "name": "getSupportedTokens",
      "outputs": [
        {
          "internalType": "address[]",
          "name": "tokens",
          "type": "address[]"
        }
      ],
      "stateMutability": "view",
      "type": "function"
    },
    {
      "inputs": [
        {
          "internalType": "uint64",
          "name": "chainSelector",
          "type": "uint64"
        }
      ],
      "name": "isChainSupported",
      "outputs": [
        {
          "internalType": "bool",
          "name": "supported",
          "type": "bool"
        }
      ],
      "stateMutability": "pure",
      "type": "function"
    },
    {
      "inputs": [
        {
          "internalType": "address",
          "name": "to",
          "type": "address"
        },
        {
          "internalType": "uint256",
          "name": "amount",
          "type": "uint256"
        }
      ],
      "name": "requestLinkFromFaucet",
      "outputs": [
        {
          "internalType": "bool",
          "name": "success",
          "type": "bool"
        }
      ],
      "stateMutability": "nonpayable",
      "type": "function"
    },
    {
      "inputs": [
        {
          "internalType": "address",
          "name": "tokenAddress",
          "type": "address"
        }
      ],
      "name": "supportNewToken",
      "outputs": [],
      "stateMutability": "nonpayable",
      "type": "function"
    }
  ],
  "transactionHash": "0x0397e44b6b81090625e17c63996bfeee17811be957f56f3ecdfb095e2aff0398",
  "args": [],
  "numDeployments": 1,
  "solcInputHash": "8012fc2d8902517602e6cd852fd1d51a",
  "bytecode": "0x61012060405234801561001157600080fd5b5060405161001e906102c0565b604051809103906000f08015801561003a573d6000803e3d6000fd5b5073ffffffffffffffffffffffffffffffffffffffff1660808173ffffffffffffffffffffffffffffffffffffffff168152505060405161007a906102cd565b604051809103906000f080158015610096573d6000803e3d6000fd5b5073ffffffffffffffffffffffffffffffffffffffff1660a08173ffffffffffffffffffffffffffffffffffffffff16815250506040516100d6906102da565b6100df90610351565b604051809103906000f0801580156100fb573d6000803e3d6000fd5b5073ffffffffffffffffffffffffffffffffffffffff1660c08173ffffffffffffffffffffffffffffffffffffffff168152505060405161013b906102da565b610144906103d0565b604051809103906000f080158015610160573d6000803e3d6000fd5b5073ffffffffffffffffffffffffffffffffffffffff1660e08173ffffffffffffffffffffffffffffffffffffffff16815250506040516101a0906102e7565b604051809103906000f0801580156101bc573d6000803e3d6000fd5b5073ffffffffffffffffffffffffffffffffffffffff166101008173ffffffffffffffffffffffffffffffffffffffff1681525050600060c0519080600181540180825580915050600190039060005260206000200160009091909190916101000a81548173ffffffffffffffffffffffffffffffffffffffff021916908373ffffffffffffffffffffffffffffffffffffffff160217905550600060e0519080600181540180825580915050600190039060005260206000200160009091909190916101000a81548173ffffffffffffffffffffffffffffffffffffffff021916908373ffffffffffffffffffffffffffffffffffffffff160217905550610403565b6112a880610d7783390190565b611ca08061201f83390190565b61382180613cbf83390190565b61250d806174e083390190565b600082825260208201905092915050565b7f434349502d426e4d000000000000000000000000000000000000000000000000600082015250565b600061033b6008836102f4565b915061034682610305565b602082019050919050565b6000604082019050818103600083015261036a8161032e565b9050818103602083015261037d8161032e565b9050919050565b7f434349502d4c6e4d000000000000000000000000000000000000000000000000600082015250565b60006103ba6008836102f4565b91506103c582610384565b602082019050919050565b600060408201905081810360008301526103e9816103ad565b905081810360208301526103fc816103ad565b9050919050565b60805160a05160c05160e05161010051610922610455600039600081816101ea015261020b0152600061028f0152600061026e015260008181610130015261024d0152600061022c01526109226000f3fe608060405234801561001057600080fd5b50600436106100575760003560e01c8063657b9a4e1461005c5780636c70bee91461008c578063a48a9058146100b0578063cf838140146100e0578063fbca3b74146100fc575b600080fd5b610076600480360381019061007191906104db565b61012c565b6040516100839190610536565b60405180910390f35b6100946101d4565b6040516100a79796959493929190610648565b60405180910390f35b6100ca60048036038101906100c591906106e3565b6102c5565b6040516100d79190610536565b60405180910390f35b6100fa60048036038101906100f59190610710565b6102ed565b005b610116600480360381019061011191906106e3565b610353565b60405161012391906107fb565b60405180910390f35b60007f000000000000000000000000000000000000000000000000000000000000000073ffffffffffffffffffffffffffffffffffffffff1663a9059cbb84846040518363ffffffff1660e01b815260040161018992919061083b565b6020604051808303816000875af11580156101a8573d6000803e3d6000fd5b505050506040513d601f19601f820116820180604052508101906101cc9190610890565b905092915050565b600080600080600080600067de41ba4fc9d91ad97f00000000000000000000000000000000000000000000000000000000000000007f00000000000000000000000000000000000000000000000000000000000000007f00000000000000000000000000000000000000000000000000000000000000007f00000000000000000000000000000000000000000000000000000000000000007f00000000000000000000000000000000000000000000000000000000000000007f0000000000000000000000000000000000000000000000000000000000000000965096509650965096509650965090919293949596565b600067de41ba4fc9d91ad967ffffffffffffffff168267ffffffffffffffff16149050919050565b6000819080600181540180825580915050600190039060005260206000200160009091909190916101000a81548173ffffffffffffffffffffffffffffffffffffffff021916908373ffffffffffffffffffffffffffffffffffffffff16021790555050565b606061035e826102c5565b6103b357600067ffffffffffffffff81111561037d5761037c6108bd565b5b6040519080825280602002602001820160405280156103ab5781602001602082028036833780820191505090505b50905061043d565b600080548060200260200160405190810160405280929190818152602001828054801561043557602002820191906000526020600020905b8160009054906101000a900473ffffffffffffffffffffffffffffffffffffffff1673ffffffffffffffffffffffffffffffffffffffff16815260200190600101908083116103eb575b505050505090505b919050565b600080fd5b600073ffffffffffffffffffffffffffffffffffffffff82169050919050565b600061047282610447565b9050919050565b61048281610467565b811461048d57600080fd5b50565b60008135905061049f81610479565b92915050565b6000819050919050565b6104b8816104a5565b81146104c357600080fd5b50565b6000813590506104d5816104af565b92915050565b600080604083850312156104f2576104f1610442565b5b600061050085828601610490565b9250506020610511858286016104c6565b9150509250929050565b60008115159050919050565b6105308161051b565b82525050565b600060208201905061054b6000830184610527565b92915050565b600067ffffffffffffffff82169050919050565b61056e81610551565b82525050565b6000819050919050565b600061059961059461058f84610447565b610574565b610447565b9050919050565b60006105ab8261057e565b9050919050565b60006105bd826105a0565b9050919050565b6105cd816105b2565b82525050565b60006105de8261057e565b9050919050565b60006105f0826105d3565b9050919050565b610600816105e5565b82525050565b6000610611826105a0565b9050919050565b61062181610606565b82525050565b6000610632826105a0565b9050919050565b61064281610627565b82525050565b600060e08201905061065d600083018a610565565b61066a60208301896105c4565b61067760408301886105c4565b61068460608301876105f7565b6106916080830186610618565b61069e60a0830185610639565b6106ab60c0830184610639565b98975050505050505050565b6106c081610551565b81146106cb57600080fd5b50565b6000813590506106dd816106b7565b92915050565b6000602082840312156106f9576106f8610442565b5b6000610707848285016106ce565b91505092915050565b60006020828403121561072657610725610442565b5b600061073484828501610490565b91505092915050565b600081519050919050565b600082825260208201905092915050565b6000819050602082019050919050565b61077281610467565b82525050565b60006107848383610769565b60208301905092915050565b6000602082019050919050565b60006107a88261073d565b6107b28185610748565b93506107bd83610759565b8060005b838110156107ee5781516107d58882610778565b97506107e083610790565b9250506001810190506107c1565b5085935050505092915050565b60006020820190508181036000830152610815818461079d565b905092915050565b61082681610467565b82525050565b610835816104a5565b82525050565b6000604082019050610850600083018561081d565b61085d602083018461082c565b9392505050565b61086d8161051b565b811461087857600080fd5b50565b60008151905061088a81610864565b92915050565b6000602082840312156108a6576108a5610442565b5b60006108b48482850161087b565b91505092915050565b7f4e487b7100000000000000000000000000000000000000000000000000000000600052604160045260246000fdfea264697066735822122069afc64829b8cbb9f59506c4c1861255e8ce315a3150aac40f0ad1af5259fa7c64736f6c634300081c003360806040526040518060400160405280600d81526020017f577261707065642045746865720000000000000000000000000000000000000081525060009081610048919061030c565b506040518060400160405280600481526020017f57455448000000000000000000000000000000000000000000000000000000008152506001908161008d919061030c565b506012600260006101000a81548160ff021916908360ff1602179055503480156100b657600080fd5b506103de565b600081519050919050565b7f4e487b7100000000000000000000000000000000000000000000000000000000600052604160045260246000fd5b7f4e487b7100000000000000000000000000000000000000000000000000000000600052602260045260246000fd5b6000600282049050600182168061013d57607f821691505b6020821081036101505761014f6100f6565b5b50919050565b60008190508160005260206000209050919050565b60006020601f8301049050919050565b600082821b905092915050565b6000600883026101b87fffffffffffffffffffffffffffffffffffffffffffffffffffffffffffffffff8261017b565b6101c2868361017b565b95508019841693508086168417925050509392505050565b6000819050919050565b6000819050919050565b60006102096102046101ff846101da565b6101e4565b6101da565b9050919050565b6000819050919050565b610223836101ee565b61023761022f82610210565b848454610188565b825550505050565b600090565b61024c61023f565b61025781848461021a565b505050565b5b8181101561027b57610270600082610244565b60018101905061025d565b5050565b601f8211156102c05761029181610156565b61029a8461016b565b810160208510156102a9578190505b6102bd6102b58561016b565b83018261025c565b50505b505050565b600082821c905092915050565b60006102e3600019846008026102c5565b1980831691505092915050565b60006102fc83836102d2565b9150826002028217905092915050565b610315826100bc565b67ffffffffffffffff81111561032e5761032d6100c7565b5b6103388254610125565b61034382828561027f565b600060209050601f8311600181146103765760008415610364578287015190505b61036e85826102f0565b8655506103d6565b601f19841661038486610156565b60005b828110156103ac57848901518255600182019150602085019450602081019050610387565b868310156103c957848901516103c5601f8916826102d2565b8355505b6001600288020188555050505b505050505050565b610ebb806103ed6000396000f3fe6080604052600436106100a05760003560e01c8063313ce56711610064578063313ce567146101ad57806370a08231146101d857806395d89b4114610215578063a9059cbb14610240578063d0e30db01461027d578063dd62ed3e14610287576100af565b806306fdde03146100b4578063095ea7b3146100df57806318160ddd1461011c57806323b872dd146101475780632e1a7d4d14610184576100af565b366100af576100ad6102c4565b005b600080fd5b3480156100c057600080fd5b506100c961036a565b6040516100d69190610b0f565b60405180910390f35b3480156100eb57600080fd5b5061010660048036038101906101019190610bca565b6103f8565b6040516101139190610c25565b60405180910390f35b34801561012857600080fd5b506101316104ea565b60405161013e9190610c4f565b60405180910390f35b34801561015357600080fd5b5061016e60048036038101906101699190610c6a565b6104f2565b60405161017b9190610c25565b60405180910390f35b34801561019057600080fd5b506101ab60048036038101906101a69190610cbd565b610848565b005b3480156101b957600080fd5b506101c2610982565b6040516101cf9190610d06565b60405180910390f35b3480156101e457600080fd5b506101ff60048036038101906101fa9190610d21565b610995565b60405161020c9190610c4f565b60405180910390f35b34801561022157600080fd5b5061022a6109ad565b6040516102379190610b0f565b60405180910390f35b34801561024c57600080fd5b5061026760048036038101906102629190610bca565b610a3b565b6040516102749190610c25565b60405180910390f35b610285610a50565b005b34801561029357600080fd5b506102ae60048036038101906102a99190610d4e565b610a5a565b6040516102bb9190610c4f565b60405180910390f35b34600360003373ffffffffffffffffffffffffffffffffffffffff1673ffffffffffffffffffffffffffffffffffffffff16815260200190815260200160002060008282546103139190610dbd565b925050819055503373ffffffffffffffffffffffffffffffffffffffff167fe1fffcc4923d04b559f4d29a8bfc6cda04eb5b0d3c460751c2402c5c5cc9109c346040516103609190610c4f565b60405180910390a2565b6000805461037790610e20565b80601f01602080910402602001604051908101604052809291908181526020018280546103a390610e20565b80156103f05780601f106103c5576101008083540402835291602001916103f0565b820191906000526020600020905b8154815290600101906020018083116103d357829003601f168201915b505050505081565b600081600460003373ffffffffffffffffffffffffffffffffffffffff1673ffffffffffffffffffffffffffffffffffffffff16815260200190815260200160002060008573ffffffffffffffffffffffffffffffffffffffff1673ffffffffffffffffffffffffffffffffffffffff168152602001908152602001600020819055508273ffffffffffffffffffffffffffffffffffffffff163373ffffffffffffffffffffffffffffffffffffffff167f8c5be1e5ebec7d5bd14f71427d1e84f3dd0314c0f7b2291e5b200ac8c7c3b925846040516104d89190610c4f565b60405180910390a36001905092915050565b600047905090565b600081600360008673ffffffffffffffffffffffffffffffffffffffff1673ffffffffffffffffffffffffffffffffffffffff16815260200190815260200160002054101561054057600080fd5b3373ffffffffffffffffffffffffffffffffffffffff168473ffffffffffffffffffffffffffffffffffffffff161415801561060a57506fffffffffffffffffffffffffffffffff8016600460008673ffffffffffffffffffffffffffffffffffffffff1673ffffffffffffffffffffffffffffffffffffffff16815260200190815260200160002060003373ffffffffffffffffffffffffffffffffffffffff1673ffffffffffffffffffffffffffffffffffffffff1681526020019081526020016000205414155b1561072c5781600460008673ffffffffffffffffffffffffffffffffffffffff1673ffffffffffffffffffffffffffffffffffffffff16815260200190815260200160002060003373ffffffffffffffffffffffffffffffffffffffff1673ffffffffffffffffffffffffffffffffffffffff16815260200190815260200160002054101561069857600080fd5b81600460008673ffffffffffffffffffffffffffffffffffffffff1673ffffffffffffffffffffffffffffffffffffffff16815260200190815260200160002060003373ffffffffffffffffffffffffffffffffffffffff1673ffffffffffffffffffffffffffffffffffffffff16815260200190815260200160002060008282546107249190610e51565b925050819055505b81600360008673ffffffffffffffffffffffffffffffffffffffff1673ffffffffffffffffffffffffffffffffffffffff168152602001908152602001600020600082825461077b9190610e51565b9250508190555081600360008573ffffffffffffffffffffffffffffffffffffffff1673ffffffffffffffffffffffffffffffffffffffff16815260200190815260200160002060008282546107d19190610dbd565b925050819055508273ffffffffffffffffffffffffffffffffffffffff168473ffffffffffffffffffffffffffffffffffffffff167fddf252ad1be2c89b69c2b068fc378daa952ba7f163c4a11628f55a4df523b3ef846040516108359190610c4f565b60405180910390a3600190509392505050565b80600360003373ffffffffffffffffffffffffffffffffffffffff1673ffffffffffffffffffffffffffffffffffffffff16815260200190815260200160002054101561089457600080fd5b80600360003373ffffffffffffffffffffffffffffffffffffffff1673ffffffffffffffffffffffffffffffffffffffff16815260200190815260200160002060008282546108e39190610e51565b925050819055503373ffffffffffffffffffffffffffffffffffffffff166108fc829081150290604051600060405180830381858888f19350505050158015610930573d6000803e3d6000fd5b503373ffffffffffffffffffffffffffffffffffffffff167f7fcf532c15f0a6db0bd6d0e038bea71d30d808c7d98cb3bf7268a95bf5081b65826040516109779190610c4f565b60405180910390a250565b600260009054906101000a900460ff1681565b60036020528060005260406000206000915090505481565b600180546109ba90610e20565b80601f01602080910402602001604051908101604052809291908181526020018280546109e690610e20565b8015610a335780601f10610a0857610100808354040283529160200191610a33565b820191906000526020600020905b815481529060010190602001808311610a1657829003601f168201915b505050505081565b6000610a483384846104f2565b905092915050565b610a586102c4565b565b6004602052816000526040600020602052806000526040600020600091509150505481565b600081519050919050565b600082825260208201905092915050565b60005b83811015610ab9578082015181840152602081019050610a9e565b60008484015250505050565b6000601f19601f8301169050919050565b6000610ae182610a7f565b610aeb8185610a8a565b9350610afb818560208601610a9b565b610b0481610ac5565b840191505092915050565b60006020820190508181036000830152610b298184610ad6565b905092915050565b600080fd5b600073ffffffffffffffffffffffffffffffffffffffff82169050919050565b6000610b6182610b36565b9050919050565b610b7181610b56565b8114610b7c57600080fd5b50565b600081359050610b8e81610b68565b92915050565b6000819050919050565b610ba781610b94565b8114610bb257600080fd5b50565b600081359050610bc481610b9e565b92915050565b60008060408385031215610be157610be0610b31565b5b6000610bef85828601610b7f565b9250506020610c0085828601610bb5565b9150509250929050565b60008115159050919050565b610c1f81610c0a565b82525050565b6000602082019050610c3a6000830184610c16565b92915050565b610c4981610b94565b82525050565b6000602082019050610c646000830184610c40565b92915050565b600080600060608486031215610c8357610c82610b31565b5b6000610c9186828701610b7f565b9350506020610ca286828701610b7f565b9250506040610cb386828701610bb5565b9150509250925092565b600060208284031215610cd357610cd2610b31565b5b6000610ce184828501610bb5565b91505092915050565b600060ff82169050919050565b610d0081610cea565b82525050565b6000602082019050610d1b6000830184610cf7565b92915050565b600060208284031215610d3757610d36610b31565b5b6000610d4584828501610b7f565b91505092915050565b60008060408385031215610d6557610d64610b31565b5b6000610d7385828601610b7f565b9250506020610d8485828601610b7f565b9150509250929050565b7f4e487b7100000000000000000000000000000000000000000000000000000000600052601160045260246000fd5b6000610dc882610b94565b9150610dd383610b94565b9250828201905080821115610deb57610dea610d8e565b5b92915050565b7f4e487b7100000000000000000000000000000000000000000000000000000000600052602260045260246000fd5b60006002820490506001821680610e3857607f821691505b602082108103610e4b57610e4a610df1565b5b50919050565b6000610e5c82610b94565b9150610e6783610b94565b9250828203905081811115610e7f57610e7e610d8e565b5b9291505056fea2646970667358221220daf4b322a74903c39ed210e218c27abccb8f535df616adb66822fca9807d0aaa64736f6c634300081c0033608060405234801561001057600080fd5b506040518060400160405280600f81526020017f436861696e4c696e6b20546f6b656e00000000000000000000000000000000008152506040518060400160405280600481526020017f4c494e4b000000000000000000000000000000000000000000000000000000008152508181816003908161008e9190610490565b50806004908161009e9190610490565b50505050506100b16100b660201b60201c565b61066c565b6100d2336b033b2e3c9fd0803ce80000006100d460201b60201c565b565b600073ffffffffffffffffffffffffffffffffffffffff168273ffffffffffffffffffffffffffffffffffffffff1603610143576040517f08c379a000000000000000000000000000000000000000000000000000000000815260040161013a906105bf565b60405180910390fd5b6101556000838361023660201b60201c565b8060026000828254610167919061060e565b92505081905550806000808473ffffffffffffffffffffffffffffffffffffffff1673ffffffffffffffffffffffffffffffffffffffff168152602001908152602001600020600082825401925050819055508173ffffffffffffffffffffffffffffffffffffffff16600073ffffffffffffffffffffffffffffffffffffffff167fddf252ad1be2c89b69c2b068fc378daa952ba7f163c4a11628f55a4df523b3ef836040516102189190610651565b60405180910390a36102326000838361023b60201b60201c565b5050565b505050565b505050565b600081519050919050565b7f4e487b7100000000000000000000000000000000000000000000000000000000600052604160045260246000fd5b7f4e487b7100000000000000000000000000000000000000000000000000000000600052602260045260246000fd5b600060028204905060018216806102c157607f821691505b6020821081036102d4576102d361027a565b5b50919050565b60008190508160005260206000209050919050565b60006020601f8301049050919050565b600082821b905092915050565b60006008830261033c7fffffffffffffffffffffffffffffffffffffffffffffffffffffffffffffffff826102ff565b61034686836102ff565b95508019841693508086168417925050509392505050565b6000819050919050565b6000819050919050565b600061038d6103886103838461035e565b610368565b61035e565b9050919050565b6000819050919050565b6103a783610372565b6103bb6103b382610394565b84845461030c565b825550505050565b600090565b6103d06103c3565b6103db81848461039e565b505050565b5b818110156103ff576103f46000826103c8565b6001810190506103e1565b5050565b601f82111561044457610415816102da565b61041e846102ef565b8101602085101561042d578190505b610441610439856102ef565b8301826103e0565b50505b505050565b600082821c905092915050565b600061046760001984600802610449565b1980831691505092915050565b60006104808383610456565b9150826002028217905092915050565b61049982610240565b67ffffffffffffffff8111156104b2576104b161024b565b5b6104bc82546102a9565b6104c7828285610403565b600060209050601f8311600181146104fa57600084156104e8578287015190505b6104f28582610474565b86555061055a565b601f198416610508866102da565b60005b828110156105305784890151825560018201915060208501945060208101905061050b565b8683101561054d5784890151610549601f891682610456565b8355505b6001600288020188555050505b505050505050565b600082825260208201905092915050565b7f45524332303a206d696e7420746f20746865207a65726f206164647265737300600082015250565b60006105a9601f83610562565b91506105b482610573565b602082019050919050565b600060208201905081810360008301526105d88161059c565b9050919050565b7f4e487b7100000000000000000000000000000000000000000000000000000000600052601160045260246000fd5b60006106198261035e565b91506106248361035e565b925082820190508082111561063c5761063b6105df565b5b92915050565b61064b8161035e565b82525050565b60006020820190506106666000830184610642565b92915050565b6116258061067b6000396000f3fe608060405234801561001057600080fd5b50600436106100b45760003560e01c80634000aea0116100715780634000aea0146101a357806370a08231146101d357806395d89b4114610203578063a457c2d714610221578063a9059cbb14610251578063dd62ed3e14610281576100b4565b806306fdde03146100b9578063095ea7b3146100d757806318160ddd1461010757806323b872dd14610125578063313ce567146101555780633950935114610173575b600080fd5b6100c16102b1565b6040516100ce9190610c7d565b60405180910390f35b6100f160048036038101906100ec9190610d47565b610343565b6040516100fe9190610da2565b60405180910390f35b61010f610366565b60405161011c9190610dcc565b60405180910390f35b61013f600480360381019061013a9190610de7565b610370565b60405161014c9190610da2565b60405180910390f35b61015d61039f565b60405161016a9190610e56565b60405180910390f35b61018d60048036038101906101889190610d47565b6103a8565b60405161019a9190610da2565b60405180910390f35b6101bd60048036038101906101b89190610fa6565b6103df565b6040516101ca9190610da2565b60405180910390f35b6101ed60048036038101906101e89190611015565b6104f2565b6040516101fa9190610dcc565b60405180910390f35b61020b61053a565b6040516102189190610c7d565b60405180910390f35b61023b60048036038101906102369190610d47565b6105cc565b6040516102489190610da2565b60405180910390f35b61026b60048036038101906102669190610d47565b610643565b6040516102789190610da2565b60405180910390f35b61029b60048036038101906102969190611042565b610666565b6040516102a89190610dcc565b60405180910390f35b6060600380546102c0906110b1565b80601f01602080910402602001604051908101604052809291908181526020018280546102ec906110b1565b80156103395780601f1061030e57610100808354040283529160200191610339565b820191906000526020600020905b81548152906001019060200180831161031c57829003601f168201915b5050505050905090565b60008061034e6106ed565b905061035b8185856106f5565b600191505092915050565b6000600254905090565b60008061037b6106ed565b90506103888582856108be565b61039385858561094a565b60019150509392505050565b60006012905090565b6000806103b36106ed565b90506103d48185856103c58589610666565b6103cf9190611111565b6106f5565b600191505092915050565b60006103eb8484610643565b508373ffffffffffffffffffffffffffffffffffffffff163373ffffffffffffffffffffffffffffffffffffffff167fe19260aff97b920c7df27010903aeb9c8d2be5d310a2c67824cf3f15396e4c16858560405161044b92919061119a565b60405180910390a36104728473ffffffffffffffffffffffffffffffffffffffff16610bc0565b156104e7578373ffffffffffffffffffffffffffffffffffffffff1663a4c0ed363385856040518463ffffffff1660e01b81526004016104b4939291906111d9565b600060405180830381600087803b1580156104ce57600080fd5b505af11580156104e2573d6000803e3d6000fd5b505050505b600190509392505050565b60008060008373ffffffffffffffffffffffffffffffffffffffff1673ffffffffffffffffffffffffffffffffffffffff168152602001908152602001600020549050919050565b606060048054610549906110b1565b80601f0160208091040260200160405190810160405280929190818152602001828054610575906110b1565b80156105c25780601f10610597576101008083540402835291602001916105c2565b820191906000526020600020905b8154815290600101906020018083116105a557829003601f168201915b5050505050905090565b6000806105d76106ed565b905060006105e58286610666565b90508381101561062a576040517f08c379a000000000000000000000000000000000000000000000000000000000815260040161062190611289565b60405180910390fd5b61063782868684036106f5565b60019250505092915050565b60008061064e6106ed565b905061065b81858561094a565b600191505092915050565b6000600160008473ffffffffffffffffffffffffffffffffffffffff1673ffffffffffffffffffffffffffffffffffffffff16815260200190815260200160002060008373ffffffffffffffffffffffffffffffffffffffff1673ffffffffffffffffffffffffffffffffffffffff16815260200190815260200160002054905092915050565b600033905090565b600073ffffffffffffffffffffffffffffffffffffffff168373ffffffffffffffffffffffffffffffffffffffff1603610764576040517f08c379a000000000000000000000000000000000000000000000000000000000815260040161075b9061131b565b60405180910390fd5b600073ffffffffffffffffffffffffffffffffffffffff168273ffffffffffffffffffffffffffffffffffffffff16036107d3576040517f08c379a00000000000000000000000000000000000000000000000000000000081526004016107ca906113ad565b60405180910390fd5b80600160008573ffffffffffffffffffffffffffffffffffffffff1673ffffffffffffffffffffffffffffffffffffffff16815260200190815260200160002060008473ffffffffffffffffffffffffffffffffffffffff1673ffffffffffffffffffffffffffffffffffffffff168152602001908152602001600020819055508173ffffffffffffffffffffffffffffffffffffffff168373ffffffffffffffffffffffffffffffffffffffff167f8c5be1e5ebec7d5bd14f71427d1e84f3dd0314c0f7b2291e5b200ac8c7c3b925836040516108b19190610dcc565b60405180910390a3505050565b60006108ca8484610666565b90507fffffffffffffffffffffffffffffffffffffffffffffffffffffffffffffffff81146109445781811015610936576040517f08c379a000000000000000000000000000000000000000000000000000000000815260040161092d90611419565b60405180910390fd5b61094384848484036106f5565b5b50505050565b600073ffffffffffffffffffffffffffffffffffffffff168373ffffffffffffffffffffffffffffffffffffffff16036109b9576040517f08c379a00000000000000000000000000000000000000000000000000000000081526004016109b0906114ab565b60405180910390fd5b600073ffffffffffffffffffffffffffffffffffffffff168273ffffffffffffffffffffffffffffffffffffffff1603610a28576040517f08c379a0000000000000000000000000000000000000000000000000000000008152600401610a1f9061153d565b60405180910390fd5b610a33838383610be3565b60008060008573ffffffffffffffffffffffffffffffffffffffff1673ffffffffffffffffffffffffffffffffffffffff16815260200190815260200160002054905081811015610ab9576040517f08c379a0000000000000000000000000000000000000000000000000000000008152600401610ab0906115cf565b60405180910390fd5b8181036000808673ffffffffffffffffffffffffffffffffffffffff1673ffffffffffffffffffffffffffffffffffffffff16815260200190815260200160002081905550816000808573ffffffffffffffffffffffffffffffffffffffff1673ffffffffffffffffffffffffffffffffffffffff168152602001908152602001600020600082825401925050819055508273ffffffffffffffffffffffffffffffffffffffff168473ffffffffffffffffffffffffffffffffffffffff167fddf252ad1be2c89b69c2b068fc378daa952ba7f163c4a11628f55a4df523b3ef84604051610ba79190610dcc565b60405180910390a3610bba848484610be8565b50505050565b6000808273ffffffffffffffffffffffffffffffffffffffff163b119050919050565b505050565b505050565b600081519050919050565b600082825260208201905092915050565b60005b83811015610c27578082015181840152602081019050610c0c565b60008484015250505050565b6000601f19601f8301169050919050565b6000610c4f82610bed565b610c598185610bf8565b9350610c69818560208601610c09565b610c7281610c33565b840191505092915050565b60006020820190508181036000830152610c978184610c44565b905092915050565b6000604051905090565b600080fd5b600080fd5b600073ffffffffffffffffffffffffffffffffffffffff82169050919050565b6000610cde82610cb3565b9050919050565b610cee81610cd3565b8114610cf957600080fd5b50565b600081359050610d0b81610ce5565b92915050565b6000819050919050565b610d2481610d11565b8114610d2f57600080fd5b50565b600081359050610d4181610d1b565b92915050565b60008060408385031215610d5e57610d5d610ca9565b5b6000610d6c85828601610cfc565b9250506020610d7d85828601610d32565b9150509250929050565b60008115159050919050565b610d9c81610d87565b82525050565b6000602082019050610db76000830184610d93565b92915050565b610dc681610d11565b82525050565b6000602082019050610de16000830184610dbd565b92915050565b600080600060608486031215610e0057610dff610ca9565b5b6000610e0e86828701610cfc565b9350506020610e1f86828701610cfc565b9250506040610e3086828701610d32565b9150509250925092565b600060ff82169050919050565b610e5081610e3a565b82525050565b6000602082019050610e6b6000830184610e47565b92915050565b600080fd5b600080fd5b7f4e487b7100000000000000000000000000000000000000000000000000000000600052604160045260246000fd5b610eb382610c33565b810181811067ffffffffffffffff82111715610ed257610ed1610e7b565b5b80604052505050565b6000610ee5610c9f565b9050610ef18282610eaa565b919050565b600067ffffffffffffffff821115610f1157610f10610e7b565b5b610f1a82610c33565b9050602081019050919050565b82818337600083830152505050565b6000610f49610f4484610ef6565b610edb565b905082815260208101848484011115610f6557610f64610e76565b5b610f70848285610f27565b509392505050565b600082601f830112610f8d57610f8c610e71565b5b8135610f9d848260208601610f36565b91505092915050565b600080600060608486031215610fbf57610fbe610ca9565b5b6000610fcd86828701610cfc565b9350506020610fde86828701610d32565b925050604084013567ffffffffffffffff811115610fff57610ffe610cae565b5b61100b86828701610f78565b9150509250925092565b60006020828403121561102b5761102a610ca9565b5b600061103984828501610cfc565b91505092915050565b6000806040838503121561105957611058610ca9565b5b600061106785828601610cfc565b925050602061107885828601610cfc565b9150509250929050565b7f4e487b7100000000000000000000000000000000000000000000000000000000600052602260045260246000fd5b600060028204905060018216806110c957607f821691505b6020821081036110dc576110db611082565b5b50919050565b7f4e487b7100000000000000000000000000000000000000000000000000000000600052601160045260246000fd5b600061111c82610d11565b915061112783610d11565b925082820190508082111561113f5761113e6110e2565b5b92915050565b600081519050919050565b600082825260208201905092915050565b600061116c82611145565b6111768185611150565b9350611186818560208601610c09565b61118f81610c33565b840191505092915050565b60006040820190506111af6000830185610dbd565b81810360208301526111c18184611161565b90509392505050565b6111d381610cd3565b82525050565b60006060820190506111ee60008301866111ca565b6111fb6020830185610dbd565b818103604083015261120d8184611161565b9050949350505050565b7f45524332303a2064656372656173656420616c6c6f77616e63652062656c6f7760008201527f207a65726f000000000000000000000000000000000000000000000000000000602082015250565b6000611273602583610bf8565b915061127e82611217565b604082019050919050565b600060208201905081810360008301526112a281611266565b9050919050565b7f45524332303a20617070726f76652066726f6d20746865207a65726f2061646460008201527f7265737300000000000000000000000000000000000000000000000000000000602082015250565b6000611305602483610bf8565b9150611310826112a9565b604082019050919050565b60006020820190508181036000830152611334816112f8565b9050919050565b7f45524332303a20617070726f766520746f20746865207a65726f20616464726560008201527f7373000000000000000000000000000000000000000000000000000000000000602082015250565b6000611397602283610bf8565b91506113a28261133b565b604082019050919050565b600060208201905081810360008301526113c68161138a565b9050919050565b7f45524332303a20696e73756666696369656e7420616c6c6f77616e6365000000600082015250565b6000611403601d83610bf8565b915061140e826113cd565b602082019050919050565b60006020820190508181036000830152611432816113f6565b9050919050565b7f45524332303a207472616e736665722066726f6d20746865207a65726f20616460008201527f6472657373000000000000000000000000000000000000000000000000000000602082015250565b6000611495602583610bf8565b91506114a082611439565b604082019050919050565b600060208201905081810360008301526114c481611488565b9050919050565b7f45524332303a207472616e7366657220746f20746865207a65726f206164647260008201527f6573730000000000000000000000000000000000000000000000000000000000602082015250565b6000611527602383610bf8565b9150611532826114cb565b604082019050919050565b600060208201905081810360008301526115568161151a565b9050919050565b7f45524332303a207472616e7366657220616d6f756e742065786365656473206260008201527f616c616e63650000000000000000000000000000000000000000000000000000602082015250565b60006115b9602683610bf8565b91506115c48261155d565b604082019050919050565b600060208201905081810360008301526115e8816115ac565b905091905056fea2646970667358221220e8186d0617a53193102771ff913fb5123f91511521720cecffc233adf72d61a364736f6c634300081c003360c060405234801561001057600080fd5b506040516138213803806138218339818101604052810190610032919061041f565b8181601260003380600086868181816003908161004f91906106b8565b50806004908161005f91906106b8565b5050505050600073ffffffffffffffffffffffffffffffffffffffff168273ffffffffffffffffffffffffffffffffffffffff16036100d3576040517f08c379a00000000000000000000000000000000000000000000000000000000081526004016100ca906107e7565b60405180910390fd5b81600560006101000a81548173ffffffffffffffffffffffffffffffffffffffff021916908373ffffffffffffffffffffffffffffffffffffffff160217905550600073ffffffffffffffffffffffffffffffffffffffff168173ffffffffffffffffffffffffffffffffffffffff1614610158576101578161017c60201b60201c565b5b5050508160ff1660808160ff16815250508060a08181525050505050505050610873565b3373ffffffffffffffffffffffffffffffffffffffff168173ffffffffffffffffffffffffffffffffffffffff16036101ea576040517f08c379a00000000000000000000000000000000000000000000000000000000081526004016101e190610853565b60405180910390fd5b80600660006101000a81548173ffffffffffffffffffffffffffffffffffffffff021916908373ffffffffffffffffffffffffffffffffffffffff1602179055508073ffffffffffffffffffffffffffffffffffffffff16600560009054906101000a900473ffffffffffffffffffffffffffffffffffffffff1673ffffffffffffffffffffffffffffffffffffffff167fed8889f560326eb138920d842192f0eb3dd22b4f139c87a2c57538e05bae127860405160405180910390a350565b6000604051905090565b600080fd5b600080fd5b600080fd5b600080fd5b6000601f19601f8301169050919050565b7f4e487b7100000000000000000000000000000000000000000000000000000000600052604160045260246000fd5b610311826102c8565b810181811067ffffffffffffffff821117156103305761032f6102d9565b5b80604052505050565b60006103436102aa565b905061034f8282610308565b919050565b600067ffffffffffffffff82111561036f5761036e6102d9565b5b610378826102c8565b9050602081019050919050565b60005b838110156103a3578082015181840152602081019050610388565b60008484015250505050565b60006103c26103bd84610354565b610339565b9050828152602081018484840111156103de576103dd6102c3565b5b6103e9848285610385565b509392505050565b600082601f830112610406576104056102be565b5b81516104168482602086016103af565b91505092915050565b60008060408385031215610436576104356102b4565b5b600083015167ffffffffffffffff811115610454576104536102b9565b5b610460858286016103f1565b925050602083015167ffffffffffffffff811115610481576104806102b9565b5b61048d858286016103f1565b9150509250929050565b600081519050919050565b7f4e487b7100000000000000000000000000000000000000000000000000000000600052602260045260246000fd5b600060028204905060018216806104e957607f821691505b6020821081036104fc576104fb6104a2565b5b50919050565b60008190508160005260206000209050919050565b60006020601f8301049050919050565b600082821b905092915050565b6000600883026105647fffffffffffffffffffffffffffffffffffffffffffffffffffffffffffffffff82610527565b61056e8683610527565b95508019841693508086168417925050509392505050565b6000819050919050565b6000819050919050565b60006105b56105b06105ab84610586565b610590565b610586565b9050919050565b6000819050919050565b6105cf8361059a565b6105e36105db826105bc565b848454610534565b825550505050565b600090565b6105f86105eb565b6106038184846105c6565b505050565b5b818110156106275761061c6000826105f0565b600181019050610609565b5050565b601f82111561066c5761063d81610502565b61064684610517565b81016020851015610655578190505b61066961066185610517565b830182610608565b50505b505050565b600082821c905092915050565b600061068f60001984600802610671565b1980831691505092915050565b60006106a8838361067e565b9150826002028217905092915050565b6106c182610497565b67ffffffffffffffff8111156106da576106d96102d9565b5b6106e482546104d1565b6106ef82828561062b565b600060209050601f8311600181146107225760008415610710578287015190505b61071a858261069c565b865550610782565b601f19841661073086610502565b60005b8281101561075857848901518255600182019150602085019450602081019050610733565b868310156107755784890151610771601f89168261067e565b8355505b6001600288020188555050505b505050505050565b600082825260208201905092915050565b7f43616e6e6f7420736574206f776e657220746f207a65726f0000000000000000600082015250565b60006107d160188361078a565b91506107dc8261079b565b602082019050919050565b60006020820190508181036000830152610800816107c4565b9050919050565b7f43616e6e6f74207472616e7366657220746f2073656c66000000000000000000600082015250565b600061083d60178361078a565b915061084882610807565b602082019050919050565b6000602082019050818103600083015261086c81610830565b9050919050565b60805160a051612f7b6108a660003960008181610b1301528181610b3d015261119b0152600061091e0152612f7b6000f3fe608060405234801561001057600080fd5b50600436106101fb5760003560e01c806379ba50971161011a578063aa271e1a116100ad578063d5abeb011161007c578063d5abeb01146105e8578063d73dd62314610606578063dd62ed3e14610622578063f2fde38b14610652578063f81094f31461066e576101fb565b8063aa271e1a14610564578063c2e3273d14610594578063c630948d146105b0578063c64d0ebc146105cc576101fb565b806395d89b41116100e957806395d89b41146104ca5780639dc29fac146104e8578063a457c2d714610504578063a9059cbb14610534576101fb565b806379ba50971461046857806379cc67901461047257806386fe8b431461048e5780638da5cb5b146104ac576101fb565b806340c10f1911610192578063661884631161016157806366188463146103ce57806367a5cd06146103fe5780636b32810b1461041a57806370a0823114610438576101fb565b806340c10f191461034a57806342966c68146103665780634334614a146103825780634f5632f8146103b2576101fb565b806323b872dd116101ce57806323b872dd1461029c578063313ce567146102cc57806339509351146102ea5780634000aea01461031a576101fb565b806301ffc9a71461020057806306fdde0314610230578063095ea7b31461024e57806318160ddd1461027e575b600080fd5b61021a6004803603810190610215919061209c565b61068a565b60405161022791906120e4565b60405180910390f35b61023861082c565b604051610245919061218f565b60405180910390f35b61026860048036038101906102639190612245565b6108be565b60405161027591906120e4565b60405180910390f35b6102866108e1565b6040516102939190612294565b60405180910390f35b6102b660048036038101906102b191906122af565b6108eb565b6040516102c391906120e4565b60405180910390f35b6102d461091a565b6040516102e1919061231e565b60405180910390f35b61030460048036038101906102ff9190612245565b610942565b60405161031191906120e4565b60405180910390f35b610334600480360381019061032f919061246e565b610979565b60405161034191906120e4565b60405180910390f35b610364600480360381019061035f9190612245565b610a8c565b005b610380600480360381019061037b91906124dd565b610bd4565b005b61039c6004803603810190610397919061250a565b610c2a565b6040516103a991906120e4565b60405180910390f35b6103cc60048036038101906103c7919061250a565b610c47565b005b6103e860048036038101906103e39190612245565b610caf565b6040516103f591906120e4565b60405180910390f35b6104186004803603810190610413919061250a565b610cc3565b005b610422610cd8565b60405161042f91906125f5565b60405180910390f35b610452600480360381019061044d919061250a565b610ce9565b60405161045f9190612294565b60405180910390f35b610470610d31565b005b61048c60048036038101906104879190612245565b610ec8565b005b610496610f20565b6040516104a391906125f5565b60405180910390f35b6104b4610f31565b6040516104c19190612626565b60405180910390f35b6104d2610f5b565b6040516104df919061218f565b60405180910390f35b61050260048036038101906104fd9190612245565b610fed565b005b61051e60048036038101906105199190612245565b610ffb565b60405161052b91906120e4565b60405180910390f35b61054e60048036038101906105499190612245565b611072565b60405161055b91906120e4565b60405180910390f35b61057e6004803603810190610579919061250a565b611095565b60405161058b91906120e4565b60405180910390f35b6105ae60048036038101906105a9919061250a565b6110b2565b005b6105ca60048036038101906105c5919061250a565b61111a565b005b6105e660048036038101906105e1919061250a565b61112f565b005b6105f0611197565b6040516105fd9190612294565b60405180910390f35b610620600480360381019061061b9190612245565b6111bf565b005b61063c60048036038101906106379190612641565b6111ce565b6040516106499190612294565b60405180910390f35b61066c6004803603810190610667919061250a565b611255565b005b6106886004803603810190610683919061250a565b611269565b005b60007f36372b07000000000000000000000000000000000000000000000000000000007bffffffffffffffffffffffffffffffffffffffffffffffffffffffff1916827bffffffffffffffffffffffffffffffffffffffffffffffffffffffff1916148061075557507f4000aea0000000000000000000000000000000000000000000000000000000007bffffffffffffffffffffffffffffffffffffffffffffffffffffffff1916827bffffffffffffffffffffffffffffffffffffffffffffffffffffffff1916145b806107bd57507fe6599b4d000000000000000000000000000000000000000000000000000000007bffffffffffffffffffffffffffffffffffffffffffffffffffffffff1916827bffffffffffffffffffffffffffffffffffffffffffffffffffffffff1916145b8061082557507f01ffc9a7000000000000000000000000000000000000000000000000000000007bffffffffffffffffffffffffffffffffffffffffffffffffffffffff1916827bffffffffffffffffffffffffffffffffffffffffffffffffffffffff1916145b9050919050565b60606003805461083b906126b0565b80601f0160208091040260200160405190810160405280929190818152602001828054610867906126b0565b80156108b45780601f10610889576101008083540402835291602001916108b4565b820191906000526020600020905b81548152906001019060200180831161089757829003601f168201915b5050505050905090565b6000806108c96112d1565b90506108d68185856112d9565b600191505092915050565b6000600254905090565b6000806108f66112d1565b9050610903858285611323565b61090e8585856113af565b60019150509392505050565b60007f0000000000000000000000000000000000000000000000000000000000000000905090565b60008061094d6112d1565b905061096e81858561095f85896111ce565b6109699190612710565b6112d9565b600191505092915050565b60006109858484611072565b508373ffffffffffffffffffffffffffffffffffffffff163373ffffffffffffffffffffffffffffffffffffffff167fe19260aff97b920c7df27010903aeb9c8d2be5d310a2c67824cf3f15396e4c1685856040516109e5929190612799565b60405180910390a3610a0c8473ffffffffffffffffffffffffffffffffffffffff166113f9565b15610a81578373ffffffffffffffffffffffffffffffffffffffff1663a4c0ed363385856040518463ffffffff1660e01b8152600401610a4e939291906127c9565b600060405180830381600087803b158015610a6857600080fd5b505af1158015610a7c573d6000803e3d6000fd5b505050505b600190509392505050565b610a9533611095565b610ad657336040517fe2c8c9d5000000000000000000000000000000000000000000000000000000008152600401610acd9190612626565b60405180910390fd5b813073ffffffffffffffffffffffffffffffffffffffff168173ffffffffffffffffffffffffffffffffffffffff1603610b0f57600080fd5b60007f000000000000000000000000000000000000000000000000000000000000000014158015610b7157507f000000000000000000000000000000000000000000000000000000000000000082610b656108e1565b610b6f9190612710565b115b15610bc55781610b7f6108e1565b610b899190612710565b6040517fcbbf1113000000000000000000000000000000000000000000000000000000008152600401610bbc9190612294565b60405180910390fd5b610bcf838361141c565b505050565b610bdd33610c2a565b610c1e57336040517fc820b10b000000000000000000000000000000000000000000000000000000008152600401610c159190612626565b60405180910390fd5b610c2781611572565b50565b6000610c4082600961158690919063ffffffff16565b9050919050565b610c4f6115b6565b610c6381600961164890919063ffffffff16565b15610cac578073ffffffffffffffffffffffffffffffffffffffff167f0a675452746933cefe3d74182e78db7afe57ba60eaa4234b5d85e9aa41b0610c60405160405180910390a25b50565b6000610cbb8383610ffb565b905092915050565b610cd581670de0b6b3a764000061141c565b50565b6060610ce46007611678565b905090565b60008060008373ffffffffffffffffffffffffffffffffffffffff1673ffffffffffffffffffffffffffffffffffffffff168152602001908152602001600020549050919050565b600660009054906101000a900473ffffffffffffffffffffffffffffffffffffffff1673ffffffffffffffffffffffffffffffffffffffff163373ffffffffffffffffffffffffffffffffffffffff1614610dc1576040517f08c379a0000000000000000000000000000000000000000000000000000000008152600401610db890612853565b60405180910390fd5b6000600560009054906101000a900473ffffffffffffffffffffffffffffffffffffffff16905033600560006101000a81548173ffffffffffffffffffffffffffffffffffffffff021916908373ffffffffffffffffffffffffffffffffffffffff1602179055506000600660006101000a81548173ffffffffffffffffffffffffffffffffffffffff021916908373ffffffffffffffffffffffffffffffffffffffff1602179055503373ffffffffffffffffffffffffffffffffffffffff168173ffffffffffffffffffffffffffffffffffffffff167f8be0079c531659141344cd1fd0a4f28419497f9722a3daafe3b4186f6b6457e060405160405180910390a350565b610ed133610c2a565b610f1257336040517fc820b10b000000000000000000000000000000000000000000000000000000008152600401610f099190612626565b60405180910390fd5b610f1c8282611699565b5050565b6060610f2c6009611678565b905090565b6000600560009054906101000a900473ffffffffffffffffffffffffffffffffffffffff16905090565b606060048054610f6a906126b0565b80601f0160208091040260200160405190810160405280929190818152602001828054610f96906126b0565b8015610fe35780601f10610fb857610100808354040283529160200191610fe3565b820191906000526020600020905b815481529060010190602001808311610fc657829003601f168201915b5050505050905090565b610ff78282610ec8565b5050565b6000806110066112d1565b9050600061101482866111ce565b905083811015611059576040517f08c379a0000000000000000000000000000000000000000000000000000000008152600401611050906128e5565b60405180910390fd5b61106682868684036112d9565b60019250505092915050565b60008061107d6112d1565b905061108a8185856113af565b600191505092915050565b60006110ab82600761158690919063ffffffff16565b9050919050565b6110ba6115b6565b6110ce8160076116b990919063ffffffff16565b15611117578073ffffffffffffffffffffffffffffffffffffffff167fe46fef8bbff1389d9010703cf8ebb363fb3daf5bf56edc27080b67bc8d9251ea60405160405180910390a25b50565b611123816110b2565b61112c8161112f565b50565b6111376115b6565b61114b8160096116b990919063ffffffff16565b15611194578073ffffffffffffffffffffffffffffffffffffffff167f92308bb7573b2a3d17ddb868b39d8ebec433f3194421abc22d084f89658c9bad60405160405180910390a25b50565b60007f0000000000000000000000000000000000000000000000000000000000000000905090565b6111c98282610942565b505050565b6000600160008473ffffffffffffffffffffffffffffffffffffffff1673ffffffffffffffffffffffffffffffffffffffff16815260200190815260200160002060008373ffffffffffffffffffffffffffffffffffffffff1673ffffffffffffffffffffffffffffffffffffffff16815260200190815260200160002054905092915050565b61125d6115b6565b611266816116e9565b50565b6112716115b6565b61128581600761164890919063ffffffff16565b156112ce578073ffffffffffffffffffffffffffffffffffffffff167fed998b960f6340d045f620c119730f7aa7995e7425c2401d3a5b64ff998a59e960405160405180910390a25b50565b600033905090565b813073ffffffffffffffffffffffffffffffffffffffff168173ffffffffffffffffffffffffffffffffffffffff160361131257600080fd5b61131d848484611817565b50505050565b600061132f84846111ce565b90507fffffffffffffffffffffffffffffffffffffffffffffffffffffffffffffffff81146113a9578181101561139b576040517f08c379a000000000000000000000000000000000000000000000000000000000815260040161139290612951565b60405180910390fd5b6113a884848484036112d9565b5b50505050565b813073ffffffffffffffffffffffffffffffffffffffff168173ffffffffffffffffffffffffffffffffffffffff16036113e857600080fd5b6113f38484846119e0565b50505050565b6000808273ffffffffffffffffffffffffffffffffffffffff163b119050919050565b600073ffffffffffffffffffffffffffffffffffffffff168273ffffffffffffffffffffffffffffffffffffffff160361148b576040517f08c379a0000000000000000000000000000000000000000000000000000000008152600401611482906129bd565b60405180910390fd5b61149760008383611c56565b80600260008282546114a99190612710565b92505081905550806000808473ffffffffffffffffffffffffffffffffffffffff1673ffffffffffffffffffffffffffffffffffffffff168152602001908152602001600020600082825401925050819055508173ffffffffffffffffffffffffffffffffffffffff16600073ffffffffffffffffffffffffffffffffffffffff167fddf252ad1be2c89b69c2b068fc378daa952ba7f163c4a11628f55a4df523b3ef8360405161155a9190612294565b60405180910390a361156e60008383611c5b565b5050565b61158361157d6112d1565b82611c60565b50565b60006115ae836000018373ffffffffffffffffffffffffffffffffffffffff1660001b611e2d565b905092915050565b600560009054906101000a900473ffffffffffffffffffffffffffffffffffffffff1673ffffffffffffffffffffffffffffffffffffffff163373ffffffffffffffffffffffffffffffffffffffff1614611646576040517f08c379a000000000000000000000000000000000000000000000000000000000815260040161163d90612a29565b60405180910390fd5b565b6000611670836000018373ffffffffffffffffffffffffffffffffffffffff1660001b611e50565b905092915050565b6060600061168883600001611f64565b905060608190508092505050919050565b6116ab826116a56112d1565b83611323565b6116b58282611c60565b5050565b60006116e1836000018373ffffffffffffffffffffffffffffffffffffffff1660001b611fc0565b905092915050565b3373ffffffffffffffffffffffffffffffffffffffff168173ffffffffffffffffffffffffffffffffffffffff1603611757576040517f08c379a000000000000000000000000000000000000000000000000000000000815260040161174e90612a95565b60405180910390fd5b80600660006101000a81548173ffffffffffffffffffffffffffffffffffffffff021916908373ffffffffffffffffffffffffffffffffffffffff1602179055508073ffffffffffffffffffffffffffffffffffffffff16600560009054906101000a900473ffffffffffffffffffffffffffffffffffffffff1673ffffffffffffffffffffffffffffffffffffffff167fed8889f560326eb138920d842192f0eb3dd22b4f139c87a2c57538e05bae127860405160405180910390a350565b600073ffffffffffffffffffffffffffffffffffffffff168373ffffffffffffffffffffffffffffffffffffffff1603611886576040517f08c379a000000000000000000000000000000000000000000000000000000000815260040161187d90612b27565b60405180910390fd5b600073ffffffffffffffffffffffffffffffffffffffff168273ffffffffffffffffffffffffffffffffffffffff16036118f5576040517f08c379a00000000000000000000000000000000000000000000000000000000081526004016118ec90612bb9565b60405180910390fd5b80600160008573ffffffffffffffffffffffffffffffffffffffff1673ffffffffffffffffffffffffffffffffffffffff16815260200190815260200160002060008473ffffffffffffffffffffffffffffffffffffffff1673ffffffffffffffffffffffffffffffffffffffff168152602001908152602001600020819055508173ffffffffffffffffffffffffffffffffffffffff168373ffffffffffffffffffffffffffffffffffffffff167f8c5be1e5ebec7d5bd14f71427d1e84f3dd0314c0f7b2291e5b200ac8c7c3b925836040516119d39190612294565b60405180910390a3505050565b600073ffffffffffffffffffffffffffffffffffffffff168373ffffffffffffffffffffffffffffffffffffffff1603611a4f576040517f08c379a0000000000000000000000000000000000000000000000000000000008152600401611a4690612c4b565b60405180910390fd5b600073ffffffffffffffffffffffffffffffffffffffff168273ffffffffffffffffffffffffffffffffffffffff1603611abe576040517f08c379a0000000000000000000000000000000000000000000000000000000008152600401611ab590612cdd565b60405180910390fd5b611ac9838383611c56565b60008060008573ffffffffffffffffffffffffffffffffffffffff1673ffffffffffffffffffffffffffffffffffffffff16815260200190815260200160002054905081811015611b4f576040517f08c379a0000000000000000000000000000000000000000000000000000000008152600401611b4690612d6f565b60405180910390fd5b8181036000808673ffffffffffffffffffffffffffffffffffffffff1673ffffffffffffffffffffffffffffffffffffffff16815260200190815260200160002081905550816000808573ffffffffffffffffffffffffffffffffffffffff1673ffffffffffffffffffffffffffffffffffffffff168152602001908152602001600020600082825401925050819055508273ffffffffffffffffffffffffffffffffffffffff168473ffffffffffffffffffffffffffffffffffffffff167fddf252ad1be2c89b69c2b068fc378daa952ba7f163c4a11628f55a4df523b3ef84604051611c3d9190612294565b60405180910390a3611c50848484611c5b565b50505050565b505050565b505050565b600073ffffffffffffffffffffffffffffffffffffffff168273ffffffffffffffffffffffffffffffffffffffff1603611ccf576040517f08c379a0000000000000000000000000000000000000000000000000000000008152600401611cc690612e01565b60405180910390fd5b611cdb82600083611c56565b60008060008473ffffffffffffffffffffffffffffffffffffffff1673ffffffffffffffffffffffffffffffffffffffff16815260200190815260200160002054905081811015611d61576040517f08c379a0000000000000000000000000000000000000000000000000000000008152600401611d5890612e93565b60405180910390fd5b8181036000808573ffffffffffffffffffffffffffffffffffffffff1673ffffffffffffffffffffffffffffffffffffffff1681526020019081526020016000208190555081600260008282540392505081905550600073ffffffffffffffffffffffffffffffffffffffff168373ffffffffffffffffffffffffffffffffffffffff167fddf252ad1be2c89b69c2b068fc378daa952ba7f163c4a11628f55a4df523b3ef84604051611e149190612294565b60405180910390a3611e2883600084611c5b565b505050565b600080836001016000848152602001908152602001600020541415905092915050565b60008083600101600084815260200190815260200160002054905060008114611f58576000600182611e829190612eb3565b9050600060018660000180549050611e9a9190612eb3565b9050818114611f09576000866000018281548110611ebb57611eba612ee7565b5b9060005260206000200154905080876000018481548110611edf57611ede612ee7565b5b90600052602060002001819055508387600101600083815260200190815260200160002081905550505b85600001805480611f1d57611f1c612f16565b5b600190038181906000526020600020016000905590558560010160008681526020019081526020016000206000905560019350505050611f5e565b60009150505b92915050565b606081600001805480602002602001604051908101604052809291908181526020018280548015611fb457602002820191906000526020600020905b815481526020019060010190808311611fa0575b50505050509050919050565b6000611fcc8383611e2d565b61202557826000018290806001815401808255809150506001900390600052602060002001600090919091909150558260000180549050836001016000848152602001908152602001600020819055506001905061202a565b600090505b92915050565b6000604051905090565b600080fd5b600080fd5b60007fffffffff0000000000000000000000000000000000000000000000000000000082169050919050565b61207981612044565b811461208457600080fd5b50565b60008135905061209681612070565b92915050565b6000602082840312156120b2576120b161203a565b5b60006120c084828501612087565b91505092915050565b60008115159050919050565b6120de816120c9565b82525050565b60006020820190506120f960008301846120d5565b92915050565b600081519050919050565b600082825260208201905092915050565b60005b8381101561213957808201518184015260208101905061211e565b60008484015250505050565b6000601f19601f8301169050919050565b6000612161826120ff565b61216b818561210a565b935061217b81856020860161211b565b61218481612145565b840191505092915050565b600060208201905081810360008301526121a98184612156565b905092915050565b600073ffffffffffffffffffffffffffffffffffffffff82169050919050565b60006121dc826121b1565b9050919050565b6121ec816121d1565b81146121f757600080fd5b50565b600081359050612209816121e3565b92915050565b6000819050919050565b6122228161220f565b811461222d57600080fd5b50565b60008135905061223f81612219565b92915050565b6000806040838503121561225c5761225b61203a565b5b600061226a858286016121fa565b925050602061227b85828601612230565b9150509250929050565b61228e8161220f565b82525050565b60006020820190506122a96000830184612285565b92915050565b6000806000606084860312156122c8576122c761203a565b5b60006122d6868287016121fa565b93505060206122e7868287016121fa565b92505060406122f886828701612230565b9150509250925092565b600060ff82169050919050565b61231881612302565b82525050565b6000602082019050612333600083018461230f565b92915050565b600080fd5b600080fd5b7f4e487b7100000000000000000000000000000000000000000000000000000000600052604160045260246000fd5b61237b82612145565b810181811067ffffffffffffffff8211171561239a57612399612343565b5b80604052505050565b60006123ad612030565b90506123b98282612372565b919050565b600067ffffffffffffffff8211156123d9576123d8612343565b5b6123e282612145565b9050602081019050919050565b82818337600083830152505050565b600061241161240c846123be565b6123a3565b90508281526020810184848401111561242d5761242c61233e565b5b6124388482856123ef565b509392505050565b600082601f83011261245557612454612339565b5b81356124658482602086016123fe565b91505092915050565b6000806000606084860312156124875761248661203a565b5b6000612495868287016121fa565b93505060206124a686828701612230565b925050604084013567ffffffffffffffff8111156124c7576124c661203f565b5b6124d386828701612440565b9150509250925092565b6000602082840312156124f3576124f261203a565b5b600061250184828501612230565b91505092915050565b6000602082840312156125205761251f61203a565b5b600061252e848285016121fa565b91505092915050565b600081519050919050565b600082825260208201905092915050565b6000819050602082019050919050565b61256c816121d1565b82525050565b600061257e8383612563565b60208301905092915050565b6000602082019050919050565b60006125a282612537565b6125ac8185612542565b93506125b783612553565b8060005b838110156125e85781516125cf8882612572565b97506125da8361258a565b9250506001810190506125bb565b5085935050505092915050565b6000602082019050818103600083015261260f8184612597565b905092915050565b612620816121d1565b82525050565b600060208201905061263b6000830184612617565b92915050565b600080604083850312156126585761265761203a565b5b6000612666858286016121fa565b9250506020612677858286016121fa565b9150509250929050565b7f4e487b7100000000000000000000000000000000000000000000000000000000600052602260045260246000fd5b600060028204905060018216806126c857607f821691505b6020821081036126db576126da612681565b5b50919050565b7f4e487b7100000000000000000000000000000000000000000000000000000000600052601160045260246000fd5b600061271b8261220f565b91506127268361220f565b925082820190508082111561273e5761273d6126e1565b5b92915050565b600081519050919050565b600082825260208201905092915050565b600061276b82612744565b612775818561274f565b935061278581856020860161211b565b61278e81612145565b840191505092915050565b60006040820190506127ae6000830185612285565b81810360208301526127c08184612760565b90509392505050565b60006060820190506127de6000830186612617565b6127eb6020830185612285565b81810360408301526127fd8184612760565b9050949350505050565b7f4d7573742062652070726f706f736564206f776e657200000000000000000000600082015250565b600061283d60168361210a565b915061284882612807565b602082019050919050565b6000602082019050818103600083015261286c81612830565b9050919050565b7f45524332303a2064656372656173656420616c6c6f77616e63652062656c6f7760008201527f207a65726f000000000000000000000000000000000000000000000000000000602082015250565b60006128cf60258361210a565b91506128da82612873565b604082019050919050565b600060208201905081810360008301526128fe816128c2565b9050919050565b7f45524332303a20696e73756666696369656e7420616c6c6f77616e6365000000600082015250565b600061293b601d8361210a565b915061294682612905565b602082019050919050565b6000602082019050818103600083015261296a8161292e565b9050919050565b7f45524332303a206d696e7420746f20746865207a65726f206164647265737300600082015250565b60006129a7601f8361210a565b91506129b282612971565b602082019050919050565b600060208201905081810360008301526129d68161299a565b9050919050565b7f4f6e6c792063616c6c61626c65206279206f776e657200000000000000000000600082015250565b6000612a1360168361210a565b9150612a1e826129dd565b602082019050919050565b60006020820190508181036000830152612a4281612a06565b9050919050565b7f43616e6e6f74207472616e7366657220746f2073656c66000000000000000000600082015250565b6000612a7f60178361210a565b9150612a8a82612a49565b602082019050919050565b60006020820190508181036000830152612aae81612a72565b9050919050565b7f45524332303a20617070726f76652066726f6d20746865207a65726f2061646460008201527f7265737300000000000000000000000000000000000000000000000000000000602082015250565b6000612b1160248361210a565b9150612b1c82612ab5565b604082019050919050565b60006020820190508181036000830152612b4081612b04565b9050919050565b7f45524332303a20617070726f766520746f20746865207a65726f20616464726560008201527f7373000000000000000000000000000000000000000000000000000000000000602082015250565b6000612ba360228361210a565b9150612bae82612b47565b604082019050919050565b60006020820190508181036000830152612bd281612b96565b9050919050565b7f45524332303a207472616e736665722066726f6d20746865207a65726f20616460008201527f6472657373000000000000000000000000000000000000000000000000000000602082015250565b6000612c3560258361210a565b9150612c4082612bd9565b604082019050919050565b60006020820190508181036000830152612c6481612c28565b9050919050565b7f45524332303a207472616e7366657220746f20746865207a65726f206164647260008201527f6573730000000000000000000000000000000000000000000000000000000000602082015250565b6000612cc760238361210a565b9150612cd282612c6b565b604082019050919050565b60006020820190508181036000830152612cf681612cba565b9050919050565b7f45524332303a207472616e7366657220616d6f756e742065786365656473206260008201527f616c616e63650000000000000000000000000000000000000000000000000000602082015250565b6000612d5960268361210a565b9150612d6482612cfd565b604082019050919050565b60006020820190508181036000830152612d8881612d4c565b9050919050565b7f45524332303a206275726e2066726f6d20746865207a65726f2061646472657360008201527f7300000000000000000000000000000000000000000000000000000000000000602082015250565b6000612deb60218361210a565b9150612df682612d8f565b604082019050919050565b60006020820190508181036000830152612e1a81612dde565b9050919050565b7f45524332303a206275726e20616d6f756e7420657863656564732062616c616e60008201527f6365000000000000000000000000000000000000000000000000000000000000602082015250565b6000612e7d60228361210a565b9150612e8882612e21565b604082019050919050565b60006020820190508181036000830152612eac81612e70565b9050919050565b6000612ebe8261220f565b9150612ec98361220f565b9250828203905081811115612ee157612ee06126e1565b5b92915050565b7f4e487b7100000000000000000000000000000000000000000000000000000000600052603260045260246000fd5b7f4e487b7100000000000000000000000000000000000000000000000000000000600052603160045260246000fdfea2646970667358221220f5b64268a91cef9841454109599f50b71f39405a23b02daa4cdbf90eecd2c63264736f6c634300081c00336080604052348015600f57600080fd5b506124ee8061001f6000396000f3fe6080604052600436106100865760003560e01c8063a48a905811610059578063a48a905814610174578063a8d87a3b146101b1578063d6be695a146101ee578063ee18e0d314610219578063fbca3b741461024457610086565b806320487ded1461008b5780633cf97983146100c857806383826b2b1461010757806396f4e9f914610144575b600080fd5b34801561009757600080fd5b506100b260048036038101906100ad919061133f565b610281565b6040516100bf91906113aa565b60405180910390f35b3480156100d457600080fd5b506100ef60048036038101906100ea9190611423565b610289565b6040516100fe93929190611540565b60405180910390f35b34801561011357600080fd5b5061012e6004803603810190610129919061157e565b6102b4565b60405161013b91906115be565b60405180910390f35b61015e600480360381019061015991906115f8565b6102c0565b60405161016b919061166d565b60405180910390f35b34801561018057600080fd5b5061019b60048036038101906101969190611688565b610640565b6040516101a891906115be565b60405180910390f35b3480156101bd57600080fd5b506101d860048036038101906101d39190611688565b61064b565b6040516101e591906116c4565b60405180910390f35b3480156101fa57600080fd5b50610203610659565b60405161021091906116ee565b60405180910390f35b34801561022557600080fd5b5061022e610660565b60405161023b9190611718565b60405180910390f35b34801561025057600080fd5b5061026b60048036038101906102669190611688565b610666565b60405161027891906117f1565b60405180910390f35b600092915050565b6000606060006102a48761029c9061191f565b8787876106b9565b9250925092509450945094915050565b60006001905092915050565b600060208280600001906102d49190611941565b905014610328578180600001906102eb9190611941565b6040517f370d875f00000000000000000000000000000000000000000000000000000000815260040161031f9291906119d1565b60405180910390fd5b600082806000019061033a9190611941565b81019061034791906119f5565b905073ffffffffffffffffffffffffffffffffffffffff801681118061036d5750600a81105b156103bf578280600001906103829190611941565b6040517f370d875f0000000000000000000000000000000000000000000000000000000081526004016103b69291906119d1565b60405180910390fd5b600081905060006103de8580608001906103d99190611941565b610876565b6000015190506000856040516020016103f79190611d14565b60405160208183030381529060405280519060200120905060006040518060a0016040528083815260200167de41ba4fc9d91ad967ffffffffffffffff1681526020013360405160200161044b91906116c4565b604051602081830303815290604052815260200188806020019061046f9190611941565b8080601f016020809104026020016040519081016040528093929190818152602001838380828437600081840152601f19601f8201169050808301925050505050505081526020018880604001906104c79190611d36565b808060200260200160405190810160405280939291908181526020016000905b82821015610517578484839050604002018036038101906105089190611d99565b815260200190600101906104e7565b5050505050815250905060005b8780604001906105349190611d36565b90508110156105d7576105cc33868a80604001906105529190611d36565b8581811061056357610562611dc6565b5b905060400201602001358b806040019061057d9190611d36565b8681811061058e5761058d611dc6565b5b90506040020160000160208101906105a69190611df5565b73ffffffffffffffffffffffffffffffffffffffff1661095f909392919063ffffffff16565b806001019050610524565b506000806105e98361138887896106b9565b50915091508161063057806040517f0a8d6e8c0000000000000000000000000000000000000000000000000000000081526004016106279190611e22565b60405180910390fd5b8397505050505050505092915050565b600060019050919050565b600063499602d29050919050565b62030d4081565b61138881565b6060600067ffffffffffffffff81111561068357610682610f5d565b5b6040519080825280602002602001820160405280156106b15781602001602082028036833780820191505090505b509050919050565b600060606000808473ffffffffffffffffffffffffffffffffffffffff163b148061072a57506107287f85572ffb000000000000000000000000000000000000000000000000000000008573ffffffffffffffffffffffffffffffffffffffff166109e890919063ffffffff16565b155b1561074f5760016000604051806020016040528060008152509092509250925061086c565b60006385572ffb60e01b8860405160240161076a9190611fec565b604051602081830303815290604052907bffffffffffffffffffffffffffffffffffffffffffffffffffffffff19166020820180517bffffffffffffffffffffffffffffffffffffffffffffffffffffffff838183161783525050505090506107d78186888a6084610a0d565b8094508195508296505050507fa8b0355886b5b7a28bb97e4f0a24feb172618407402721c4012d8b7c6433102f84848460405161081693929190611540565b60405180910390a17f9b877de93ea9895756e337442c657f95a34fc68e7eb988bdfa693d5be83016b688600001518960200151338480519060200120604051610862949392919061200e565b60405180910390a1505b9450945094915050565b61087e610ee0565b600083839050036108ac57604051806020016040528062030d4067ffffffffffffffff168152509050610959565b6397a657c960e01b7bffffffffffffffffffffffffffffffffffffffffffffffffffffffff19168383906108e09190612097565b7bffffffffffffffffffffffffffffffffffffffffffffffffffffffff191614610936576040517f5247fdce00000000000000000000000000000000000000000000000000000000815260040160405180910390fd5b8282600490809261094993929190612100565b8101906109569190612177565b90505b92915050565b6109e2846323b872dd60e01b858585604051602401610980939291906121a4565b604051602081830303815290604052907bffffffffffffffffffffffffffffffffffffffffffffffffffffffff19166020820180517bffffffffffffffffffffffffffffffffffffffffffffffffffffffff8381831617835250505050610b40565b50505050565b60006109f383610c07565b8015610a055750610a048383610c54565b5b905092915050565b6000606060008361ffff1667ffffffffffffffff811115610a3157610a30610f5d565b5b6040519080825280601f01601f191660200182016040528015610a635781602001600182028036833780820191505090505b509150863b610a96577f0c3b563c0000000000000000000000000000000000000000000000000000000060005260046000fd5b5a85811015610ac9577fafa32a2c0000000000000000000000000000000000000000000000000000000060005260046000fd5b85810390508660408204820311610b04577f37c3be290000000000000000000000000000000000000000000000000000000060005260046000fd5b5a6000808b5160208d0160008d8df194505a810392503d86811115610b27578690505b808552806000602087013e505050955095509592505050565b6000610ba2826040518060400160405280602081526020017f5361666545524332303a206c6f772d6c6576656c2063616c6c206661696c65648152508573ffffffffffffffffffffffffffffffffffffffff16610d139092919063ffffffff16565b9050600081511115610c025780806020019051810190610bc29190612207565b610c01576040517f08c379a0000000000000000000000000000000000000000000000000000000008152600401610bf8906122b7565b60405180910390fd5b5b505050565b6000610c33827f01ffc9a700000000000000000000000000000000000000000000000000000000610c54565b8015610c4d5750610c4b8263ffffffff60e01b610c54565b155b9050919050565b6000806301ffc9a760e01b83604051602401610c7091906122e6565b604051602081830303815290604052907bffffffffffffffffffffffffffffffffffffffffffffffffffffffff19166020820180517bffffffffffffffffffffffffffffffffffffffffffffffffffffffff838183161783525050505090506000806000602060008551602087018a617530fa92503d91506000519050828015610cfb575060208210155b8015610d075750600081115b94505050505092915050565b6060610d228484600085610d2b565b90509392505050565b606082471015610d70576040517f08c379a0000000000000000000000000000000000000000000000000000000008152600401610d6790612373565b60405180910390fd5b6000808673ffffffffffffffffffffffffffffffffffffffff168587604051610d9991906123cf565b60006040518083038185875af1925050503d8060008114610dd6576040519150601f19603f3d011682016040523d82523d6000602084013e610ddb565b606091505b5091509150610dec87838387610df8565b92505050949350505050565b60608315610e5a576000835103610e5257610e1285610e6d565b610e51576040517f08c379a0000000000000000000000000000000000000000000000000000000008152600401610e4890612432565b60405180910390fd5b5b829050610e65565b610e648383610e90565b5b949350505050565b6000808273ffffffffffffffffffffffffffffffffffffffff163b119050919050565b600082511115610ea35781518083602001fd5b806040517f08c379a0000000000000000000000000000000000000000000000000000000008152600401610ed79190612496565b60405180910390fd5b6040518060200160405280600081525090565b6000604051905090565b600080fd5b600080fd5b600067ffffffffffffffff82169050919050565b610f2481610f07565b8114610f2f57600080fd5b50565b600081359050610f4181610f1b565b92915050565b600080fd5b6000601f19601f8301169050919050565b7f4e487b7100000000000000000000000000000000000000000000000000000000600052604160045260246000fd5b610f9582610f4c565b810181811067ffffffffffffffff82111715610fb457610fb3610f5d565b5b80604052505050565b6000610fc7610ef3565b9050610fd38282610f8c565b919050565b600080fd5b600080fd5b600080fd5b600067ffffffffffffffff82111561100257611001610f5d565b5b61100b82610f4c565b9050602081019050919050565b82818337600083830152505050565b600061103a61103584610fe7565b610fbd565b90508281526020810184848401111561105657611055610fe2565b5b611061848285611018565b509392505050565b600082601f83011261107e5761107d610fdd565b5b813561108e848260208601611027565b91505092915050565b600067ffffffffffffffff8211156110b2576110b1610f5d565b5b602082029050602081019050919050565b600080fd5b600073ffffffffffffffffffffffffffffffffffffffff82169050919050565b60006110f3826110c8565b9050919050565b611103816110e8565b811461110e57600080fd5b50565b600081359050611120816110fa565b92915050565b6000819050919050565b61113981611126565b811461114457600080fd5b50565b60008135905061115681611130565b92915050565b60006040828403121561117257611171610f47565b5b61117c6040610fbd565b9050600061118c84828501611111565b60008301525060206111a084828501611147565b60208301525092915050565b60006111bf6111ba84611097565b610fbd565b905080838252602082019050604084028301858111156111e2576111e16110c3565b5b835b8181101561120b57806111f7888261115c565b8452602084019350506040810190506111e4565b5050509392505050565b600082601f83011261122a57611229610fdd565b5b813561123a8482602086016111ac565b91505092915050565b600060a0828403121561125957611258610f47565b5b61126360a0610fbd565b9050600082013567ffffffffffffffff81111561128357611282610fd8565b5b61128f84828501611069565b600083015250602082013567ffffffffffffffff8111156112b3576112b2610fd8565b5b6112bf84828501611069565b602083015250604082013567ffffffffffffffff8111156112e3576112e2610fd8565b5b6112ef84828501611215565b604083015250606061130384828501611111565b606083015250608082013567ffffffffffffffff81111561132757611326610fd8565b5b61133384828501611069565b60808301525092915050565b6000806040838503121561135657611355610efd565b5b600061136485828601610f32565b925050602083013567ffffffffffffffff81111561138557611384610f02565b5b61139185828601611243565b9150509250929050565b6113a481611126565b82525050565b60006020820190506113bf600083018461139b565b92915050565b600080fd5b600060a082840312156113e0576113df6113c5565b5b81905092915050565b600061ffff82169050919050565b611400816113e9565b811461140b57600080fd5b50565b60008135905061141d816113f7565b92915050565b6000806000806080858703121561143d5761143c610efd565b5b600085013567ffffffffffffffff81111561145b5761145a610f02565b5b611467878288016113ca565b94505060206114788782880161140e565b935050604061148987828801611147565b925050606061149a87828801611111565b91505092959194509250565b60008115159050919050565b6114bb816114a6565b82525050565b600081519050919050565b600082825260208201905092915050565b60005b838110156114fb5780820151818401526020810190506114e0565b60008484015250505050565b6000611512826114c1565b61151c81856114cc565b935061152c8185602086016114dd565b61153581610f4c565b840191505092915050565b600060608201905061155560008301866114b2565b81810360208301526115678185611507565b9050611576604083018461139b565b949350505050565b6000806040838503121561159557611594610efd565b5b60006115a385828601610f32565b92505060206115b485828601611111565b9150509250929050565b60006020820190506115d360008301846114b2565b92915050565b600060a082840312156115ef576115ee6113c5565b5b81905092915050565b6000806040838503121561160f5761160e610efd565b5b600061161d85828601610f32565b925050602083013567ffffffffffffffff81111561163e5761163d610f02565b5b61164a858286016115d9565b9150509250929050565b6000819050919050565b61166781611654565b82525050565b6000602082019050611682600083018461165e565b92915050565b60006020828403121561169e5761169d610efd565b5b60006116ac84828501610f32565b91505092915050565b6116be816110e8565b82525050565b60006020820190506116d960008301846116b5565b92915050565b6116e881610f07565b82525050565b600060208201905061170360008301846116df565b92915050565b611712816113e9565b82525050565b600060208201905061172d6000830184611709565b92915050565b600081519050919050565b600082825260208201905092915050565b6000819050602082019050919050565b611768816110e8565b82525050565b600061177a838361175f565b60208301905092915050565b6000602082019050919050565b600061179e82611733565b6117a8818561173e565b93506117b38361174f565b8060005b838110156117e45781516117cb888261176e565b97506117d683611786565b9250506001810190506117b7565b5085935050505092915050565b6000602082019050818103600083015261180b8184611793565b905092915050565b61181c81611654565b811461182757600080fd5b50565b60008135905061183981611813565b92915050565b600060a0828403121561185557611854610f47565b5b61185f60a0610fbd565b9050600061186f8482850161182a565b600083015250602061188384828501610f32565b602083015250604082013567ffffffffffffffff8111156118a7576118a6610fd8565b5b6118b384828501611069565b604083015250606082013567ffffffffffffffff8111156118d7576118d6610fd8565b5b6118e384828501611069565b606083015250608082013567ffffffffffffffff81111561190757611906610fd8565b5b61191384828501611215565b60808301525092915050565b600061192b368361183f565b9050919050565b600080fd5b600080fd5b600080fd5b6000808335600160200384360303811261195e5761195d611932565b5b80840192508235915067ffffffffffffffff8211156119805761197f611937565b5b60208301925060018202360383131561199c5761199b61193c565b5b509250929050565b60006119b083856114cc565b93506119bd838584611018565b6119c683610f4c565b840190509392505050565b600060208201905081810360008301526119ec8184866119a4565b90509392505050565b600060208284031215611a0b57611a0a610efd565b5b6000611a1984828501611147565b91505092915050565b600080fd5b600080fd5b600080fd5b60008083356001602003843603038112611a4e57611a4d611a2c565b5b83810192508235915060208301925067ffffffffffffffff821115611a7657611a75611a22565b5b600182023603831315611a8c57611a8b611a27565b5b509250929050565b600082825260208201905092915050565b6000611ab18385611a94565b9350611abe838584611018565b611ac783610f4c565b840190509392505050565b60008083356001602003843603038112611aef57611aee611a2c565b5b83810192508235915060208301925067ffffffffffffffff821115611b1757611b16611a22565b5b604082023603831315611b2d57611b2c611a27565b5b509250929050565b600082825260208201905092915050565b6000819050919050565b6000611b5f6020840184611111565b905092915050565b6000611b766020840184611147565b905092915050565b611b8781611126565b82525050565b60408201611b9e6000830183611b50565b611bab600085018261175f565b50611bb96020830183611b67565b611bc66020850182611b7e565b50505050565b6000611bd88383611b8d565b60408301905092915050565b600082905092915050565b6000604082019050919050565b6000611c088385611b35565b9350611c1382611b46565b8060005b85811015611c4c57611c298284611be4565b611c338882611bcc565b9750611c3e83611bef565b925050600181019050611c17565b5085925050509392505050565b600060a08301611c6c6000840184611a31565b8583036000870152611c7f838284611aa5565b92505050611c906020840184611a31565b8583036020870152611ca3838284611aa5565b92505050611cb46040840184611ad2565b8583036040870152611cc7838284611bfc565b92505050611cd86060840184611b50565b611ce5606086018261175f565b50611cf36080840184611a31565b8583036080870152611d06838284611aa5565b925050508091505092915050565b60006020820190508181036000830152611d2e8184611c59565b905092915050565b60008083356001602003843603038112611d5357611d52611932565b5b80840192508235915067ffffffffffffffff821115611d7557611d74611937565b5b602083019250604082023603831315611d9157611d9061193c565b5b509250929050565b600060408284031215611daf57611dae610efd565b5b6000611dbd8482850161115c565b91505092915050565b7f4e487b7100000000000000000000000000000000000000000000000000000000600052603260045260246000fd5b600060208284031215611e0b57611e0a610efd565b5b6000611e1984828501611111565b91505092915050565b60006020820190508181036000830152611e3c8184611507565b905092915050565b611e4d81611654565b82525050565b611e5c81610f07565b82525050565b6000611e6d826114c1565b611e778185611a94565b9350611e878185602086016114dd565b611e9081610f4c565b840191505092915050565b600081519050919050565b6000819050602082019050919050565b604082016000820151611ecc600085018261175f565b506020820151611edf6020850182611b7e565b50505050565b6000611ef18383611eb6565b60408301905092915050565b6000602082019050919050565b6000611f1582611e9b565b611f1f8185611b35565b9350611f2a83611ea6565b8060005b83811015611f5b578151611f428882611ee5565b9750611f4d83611efd565b925050600181019050611f2e565b5085935050505092915050565b600060a083016000830151611f806000860182611e44565b506020830151611f936020860182611e53565b5060408301518482036040860152611fab8282611e62565b91505060608301518482036060860152611fc58282611e62565b91505060808301518482036080860152611fdf8282611f0a565b9150508091505092915050565b600060208201905081810360008301526120068184611f68565b905092915050565b6000608082019050612023600083018761165e565b61203060208301866116df565b61203d60408301856116b5565b61204a606083018461165e565b95945050505050565b600082905092915050565b60007fffffffff0000000000000000000000000000000000000000000000000000000082169050919050565b600082821b905092915050565b60006120a38383612053565b826120ae813561205e565b925060048210156120ee576120e97fffffffff000000000000000000000000000000000000000000000000000000008360040360080261208a565b831692505b505092915050565b600080fd5b600080fd5b60008085851115612114576121136120f6565b5b83861115612125576121246120fb565b5b6001850283019150848603905094509492505050565b60006020828403121561215157612150610f47565b5b61215b6020610fbd565b9050600061216b84828501611147565b60008301525092915050565b60006020828403121561218d5761218c610efd565b5b600061219b8482850161213b565b91505092915050565b60006060820190506121b960008301866116b5565b6121c660208301856116b5565b6121d3604083018461139b565b949350505050565b6121e4816114a6565b81146121ef57600080fd5b50565b600081519050612201816121db565b92915050565b60006020828403121561221d5761221c610efd565b5b600061222b848285016121f2565b91505092915050565b600082825260208201905092915050565b7f5361666545524332303a204552433230206f7065726174696f6e20646964206e60008201527f6f74207375636365656400000000000000000000000000000000000000000000602082015250565b60006122a1602a83612234565b91506122ac82612245565b604082019050919050565b600060208201905081810360008301526122d081612294565b9050919050565b6122e08161205e565b82525050565b60006020820190506122fb60008301846122d7565b92915050565b7f416464726573733a20696e73756666696369656e742062616c616e636520666f60008201527f722063616c6c0000000000000000000000000000000000000000000000000000602082015250565b600061235d602683612234565b915061236882612301565b604082019050919050565b6000602082019050818103600083015261238c81612350565b9050919050565b600081905092915050565b60006123a9826114c1565b6123b38185612393565b93506123c38185602086016114dd565b80840191505092915050565b60006123db828461239e565b915081905092915050565b7f416464726573733a2063616c6c20746f206e6f6e2d636f6e7472616374000000600082015250565b600061241c601d83612234565b9150612427826123e6565b602082019050919050565b6000602082019050818103600083015261244b8161240f565b9050919050565b600081519050919050565b600061246882612452565b6124728185612234565b93506124828185602086016114dd565b61248b81610f4c565b840191505092915050565b600060208201905081810360008301526124b0818461245d565b90509291505056fea2646970667358221220e36f7b144e19de279cbdd07fae973e4fff0962e15168ecfd7a9fd500da5f3d5a64736f6c634300081c0033",
  "devdoc": {
    "kind": "dev",
    "methods": {
      "configuration()": {
        "returns": {
          "ccipBnM_": "- The ccipBnM token.",
          "ccipLnM_": "- The ccipLnM token.",
          "chainSelector_": "- The unique CCIP Chain Selector.",
          "destinationRouter_": "- The destination chain Router contract.",
          "linkToken_": "- The LINK token.",
          "sourceRouter_": " - The source chain Router contract.",
          "wrappedNative_": "- The wrapped native token which can be used for CCIP fees."
        }
      },
      "getSupportedTokens(uint64)": {
        "params": {
          "chainSelector": "- The unique CCIP Chain Selector."
        },
        "returns": {
          "tokens": "- Returns a list of token addresses that are supported for cross-chain transfers by the simulator."
        }
      },
      "isChainSupported(uint64)": {
        "params": {
          "chainSelector": "- The unique CCIP Chain Selector."
        },
        "returns": {
          "supported": "- Returns true if `chainSelector` is supported by the simulator."
        }
      },
      "requestLinkFromFaucet(address,uint256)": {
        "params": {
          "amount": "- The amount of LINK tokens to send.",
          "to": "- The address to which LINK tokens are to be sent."
        },
        "returns": {
          "success": "- Returns `true` if the transfer of tokens was successful, otherwise `false`."
        }
      },
      "supportNewToken(address)": {
        "params": {
          "tokenAddress": "- The address of the token to add to the list of supported tokens."
        }
      }
    },
    "version": 1
  },
  "userdoc": {
    "kind": "user",
    "methods": {
      "configuration()": {
        "notice": "Returns configuration details for pre-deployed contracts and services needed for local CCIP simulations."
      },
      "getSupportedTokens(uint64)": {
        "notice": "Gets a list of token addresses that are supported for cross-chain transfers by the simulator."
      },
      "isChainSupported(uint64)": {
        "notice": "Checks whether the provided `chainSelector` is supported by the simulator."
      },
      "requestLinkFromFaucet(address,uint256)": {
        "notice": "Requests LINK tokens from the faucet. The provided amount of tokens are transferred to provided destination address."
      },
      "supportNewToken(address)": {
        "notice": "Allows user to support any new token, besides CCIP BnM and CCIP LnM, for cross-chain transfers."
      }
    },
    "version": 1
  },
  "storageLayout": {
    "storage": [
      {
        "astId": 4484,
        "contract": "@chainlink/local/src/ccip/CCIPLocalSimulator.sol:CCIPLocalSimulator",
        "label": "s_supportedTokens",
        "offset": 0,
        "slot": "0",
        "type": "t_array(t_address)dyn_storage"
      }
    ],
    "types": {
      "t_address": {
        "encoding": "inplace",
        "label": "address",
        "numberOfBytes": "20"
      },
      "t_array(t_address)dyn_storage": {
        "base": "t_address",
        "encoding": "dynamic_array",
        "label": "address[]",
        "numberOfBytes": "32"
      }
    }
  }
}