{
  "address": "0xDc64a140Aa3E981100a9becA4E685f962f0cF6C9",
  "abi": [
    {
      "inputs": [
        {
          "internalType": "address",
          "name": "_router",
          "type": "address"
        },
        {
          "internalType": "address",
          "name": "_link",
          "type": "address"
        },
        {
          "internalType": "address",
          "name": "wnftAddr",
          "type": "address"
        }
      ],
      "stateMutability": "nonpayable",
      "type": "constructor"
    },
    {
      "inputs": [
        {
          "internalType": "address",
          "name": "owner",
          "type": "address"
        },
        {
          "internalType": "address",
          "name": "target",
          "type": "address"
        },
        {
          "internalType": "uint256",
          "name": "value",
          "type": "uint256"
        }
      ],
      "name": "FailedToWithdrawEth",
      "type": "error"
    },
    {
      "inputs": [
        {
          "internalType": "address",
          "name": "router",
          "type": "address"
        }
      ],
      "name": "InvalidRouter",
      "type": "error"
    },
    {
      "inputs": [
        {
          "internalType": "uint256",
          "name": "currentBalance",
          "type": "uint256"
        },
        {
          "internalType": "uint256",
          "name": "calculatedFees",
          "type": "uint256"
        }
      ],
      "name": "NotEnoughBalance",
      "type": "error"
    },
    {
      "inputs": [],
      "name": "NothingToWithdraw",
      "type": "error"
    },
    {
      "anonymous": false,
      "inputs": [
        {
          "indexed": true,
          "internalType": "address",
          "name": "from",
          "type": "address"
        },
        {
          "indexed": true,
          "internalType": "address",
          "name": "to",
          "type": "address"
        }
      ],
      "name": "OwnershipTransferRequested",
      "type": "event"
    },
    {
      "anonymous": false,
      "inputs": [
        {
          "indexed": true,
          "internalType": "address",
          "name": "from",
          "type": "address"
        },
        {
          "indexed": true,
          "internalType": "address",
          "name": "to",
          "type": "address"
        }
      ],
      "name": "OwnershipTransferred",
      "type": "event"
    },
    {
      "anonymous": false,
      "inputs": [
        {
          "indexed": true,
          "internalType": "bytes32",
          "name": "messageId",
          "type": "bytes32"
        },
        {
          "indexed": true,
          "internalType": "uint64",
          "name": "destinationChainSelector",
          "type": "uint64"
        },
        {
          "indexed": false,
          "internalType": "address",
          "name": "receiver",
          "type": "address"
        },
        {
          "indexed": false,
          "internalType": "bytes",
          "name": "text",
          "type": "bytes"
        },
        {
          "indexed": false,
          "internalType": "address",
          "name": "feeToken",
          "type": "address"
        },
        {
          "indexed": false,
          "internalType": "uint256",
          "name": "fees",
          "type": "uint256"
        }
      ],
      "name": "TokenBurnedAndSent",
      "type": "event"
    },
    {
      "inputs": [],
      "name": "acceptOwnership",
      "outputs": [],
      "stateMutability": "nonpayable",
      "type": "function"
    },
    {
      "inputs": [
        {
          "internalType": "uint64",
          "name": "_destinationChainSelector",
          "type": "uint64"
        },
        {
          "internalType": "bool",
          "name": "allowed",
          "type": "bool"
        }
      ],
      "name": "allowlistDestinationChain",
      "outputs": [],
      "stateMutability": "nonpayable",
      "type": "function"
    },
    {
      "inputs": [
        {
          "internalType": "address",
          "name": "_sender",
          "type": "address"
        },
        {
          "internalType": "bool",
          "name": "allowed",
          "type": "bool"
        }
      ],
      "name": "allowlistSender",
      "outputs": [],
      "stateMutability": "nonpayable",
      "type": "function"
    },
    {
      "inputs": [
        {
          "internalType": "uint64",
          "name": "_sourceChainSelector",
          "type": "uint64"
        },
        {
          "internalType": "bool",
          "name": "allowed",
          "type": "bool"
        }
      ],
      "name": "allowlistSourceChain",
      "outputs": [],
      "stateMutability": "nonpayable",
      "type": "function"
    },
    {
      "inputs": [
        {
          "internalType": "uint64",
          "name": "",
          "type": "uint64"
        }
      ],
      "name": "allowlistedDestinationChains",
      "outputs": [
        {
          "internalType": "bool",
          "name": "",
          "type": "bool"
        }
      ],
      "stateMutability": "view",
      "type": "function"
    },
    {
      "inputs": [
        {
          "internalType": "address",
          "name": "",
          "type": "address"
        }
      ],
      "name": "allowlistedSenders",
      "outputs": [
        {
          "internalType": "bool",
          "name": "",
          "type": "bool"
        }
      ],
      "stateMutability": "view",
      "type": "function"
    },
    {
      "inputs": [
        {
          "internalType": "uint64",
          "name": "",
          "type": "uint64"
        }
      ],
      "name": "allowlistedSourceChains",
      "outputs": [
        {
          "internalType": "bool",
          "name": "",
          "type": "bool"
        }
      ],
      "stateMutability": "view",
      "type": "function"
    },
    {
      "inputs": [
        {
          "internalType": "uint256",
          "name": "_tokenId",
          "type": "uint256"
        },
        {
          "internalType": "address",
          "name": "newOwner",
          "type": "address"
        },
        {
          "internalType": "uint64",
          "name": "destChainSelector",
          "type": "uint64"
        },
        {
          "internalType": "address",
          "name": "receiver",
          "type": "address"
        }
      ],
      "name": "burnAndMint",
      "outputs": [],
      "stateMutability": "nonpayable",
      "type": "function"
    },
    {
      "inputs": [
        {
          "components": [
            {
              "internalType": "bytes32",
              "name": "messageId",
              "type": "bytes32"
            },
            {
              "internalType": "uint64",
              "name": "sourceChainSelector",
              "type": "uint64"
            },
            {
              "internalType": "bytes",
              "name": "sender",
              "type": "bytes"
            },
            {
              "internalType": "bytes",
              "name": "data",
              "type": "bytes"
            },
            {
              "components": [
                {
                  "internalType": "address",
                  "name": "token",
                  "type": "address"
                },
                {
                  "internalType": "uint256",
                  "name": "amount",
                  "type": "uint256"
                }
              ],
              "internalType": "struct Client.EVMTokenAmount[]",
              "name": "destTokenAmounts",
              "type": "tuple[]"
            }
          ],
          "internalType": "struct Client.Any2EVMMessage",
          "name": "message",
          "type": "tuple"
        }
      ],
      "name": "ccipReceive",
      "outputs": [],
      "stateMutability": "nonpayable",
      "type": "function"
    },
    {
      "inputs": [],
      "name": "getLastReceivedMessageDetails",
      "outputs": [
        {
          "internalType": "bytes32",
          "name": "messageId",
          "type": "bytes32"
        },
        {
          "internalType": "string",
          "name": "text",
          "type": "string"
        }
      ],
      "stateMutability": "view",
      "type": "function"
    },
    {
      "inputs": [],
      "name": "getRouter",
      "outputs": [
        {
          "internalType": "address",
          "name": "",
          "type": "address"
        }
      ],
      "stateMutability": "view",
      "type": "function"
    },
    {
      "inputs": [],
      "name": "owner",
      "outputs": [
        {
          "internalType": "address",
          "name": "",
          "type": "address"
        }
      ],
      "stateMutability": "view",
      "type": "function"
    },
    {
      "inputs": [
        {
          "internalType": "bytes4",
          "name": "interfaceId",
          "type": "bytes4"
        }
      ],
      "name": "supportsInterface",
      "outputs": [
        {
          "internalType": "bool",
          "name": "",
          "type": "bool"
        }
      ],
      "stateMutability": "pure",
      "type": "function"
    },
    {
      "inputs": [
        {
          "internalType": "address",
          "name": "to",
          "type": "address"
        }
      ],
      "name": "transferOwnership",
      "outputs": [],
      "stateMutability": "nonpayable",
      "type": "function"
    },
    {
      "inputs": [
        {
          "internalType": "address",
          "name": "_beneficiary",
          "type": "address"
        }
      ],
      "name": "withdraw",
      "outputs": [],
      "stateMutability": "nonpayable",
      "type": "function"
    },
    {
      "inputs": [
        {
          "internalType": "address",
          "name": "_beneficiary",
          "type": "address"
        },
        {
          "internalType": "address",
          "name": "_token",
          "type": "address"
        }
      ],
      "name": "withdrawToken",
      "outputs": [],
      "stateMutability": "nonpayable",
      "type": "function"
    },
    {
      "inputs": [],
      "name": "wnft",
      "outputs": [
        {
          "internalType": "contract WrappedMyToken",
          "name": "",
          "type": "address"
        }
      ],
      "stateMutability": "view",
      "type": "function"
    },
    {
      "stateMutability": "payable",
      "type": "receive"
    }
  ],
  "transactionHash": "0x0e4765b0aace9c192774c16cfd386d36b6c7a20ef49b3df3be021b3d1efb07c0",
  "args": [
    "0x603E1BD79259EbcbAaeD0c83eeC09cA0B89a5bcC",
    "0xB7A5bd0345EF1Cc5E66bf61BdeC17D2461fBd968",
    "0xCf7Ed3AccA5a467e9e704C703E8D87F634fB0Fc9"
  ],
  "numDeployments": 1,
  "solcInputHash": "e709fa8b134911fd759552f8612635cf",
  "bytecode": "0x60a060405234801561001057600080fd5b50604051613010380380613010833981810160405281019061003291906103ed565b3380600085600073ffffffffffffffffffffffffffffffffffffffff168173ffffffffffffffffffffffffffffffffffffffff16036100a95760006040517fd7f733340000000000000000000000000000000000000000000000000000000081526004016100a0919061044f565b60405180910390fd5b8073ffffffffffffffffffffffffffffffffffffffff1660808173ffffffffffffffffffffffffffffffffffffffff168152505050600073ffffffffffffffffffffffffffffffffffffffff168273ffffffffffffffffffffffffffffffffffffffff160361014d576040517f08c379a0000000000000000000000000000000000000000000000000000000008152600401610144906104c7565b60405180910390fd5b816000806101000a81548173ffffffffffffffffffffffffffffffffffffffff021916908373ffffffffffffffffffffffffffffffffffffffff160217905550600073ffffffffffffffffffffffffffffffffffffffff168173ffffffffffffffffffffffffffffffffffffffff16146101d1576101d08161025e60201b60201c565b5b50505080600860006101000a81548173ffffffffffffffffffffffffffffffffffffffff021916908373ffffffffffffffffffffffffffffffffffffffff16021790555081600760006101000a81548173ffffffffffffffffffffffffffffffffffffffff021916908373ffffffffffffffffffffffffffffffffffffffff160217905550505050610553565b3373ffffffffffffffffffffffffffffffffffffffff168173ffffffffffffffffffffffffffffffffffffffff16036102cc576040517f08c379a00000000000000000000000000000000000000000000000000000000081526004016102c390610533565b60405180910390fd5b80600160006101000a81548173ffffffffffffffffffffffffffffffffffffffff021916908373ffffffffffffffffffffffffffffffffffffffff1602179055508073ffffffffffffffffffffffffffffffffffffffff1660008054906101000a900473ffffffffffffffffffffffffffffffffffffffff1673ffffffffffffffffffffffffffffffffffffffff167fed8889f560326eb138920d842192f0eb3dd22b4f139c87a2c57538e05bae127860405160405180910390a350565b600080fd5b600073ffffffffffffffffffffffffffffffffffffffff82169050919050565b60006103ba8261038f565b9050919050565b6103ca816103af565b81146103d557600080fd5b50565b6000815190506103e7816103c1565b92915050565b6000806000606084860312156104065761040561038a565b5b6000610414868287016103d8565b9350506020610425868287016103d8565b9250506040610436868287016103d8565b9150509250925092565b610449816103af565b82525050565b60006020820190506104646000830184610440565b92915050565b600082825260208201905092915050565b7f43616e6e6f7420736574206f776e657220746f207a65726f0000000000000000600082015250565b60006104b160188361046a565b91506104bc8261047b565b602082019050919050565b600060208201905081810360008301526104e0816104a4565b9050919050565b7f43616e6e6f74207472616e7366657220746f2073656c66000000000000000000600082015250565b600061051d60178361046a565b9150610528826104e7565b602082019050919050565b6000602082019050818103600083015261054c81610510565b9050919050565b608051612a9b61057560003960008181610ab90152610bfa0152612a9b6000f3fe6080604052600436106101025760003560e01c80637a6ee0cd116100955780639c046b1b116100645780639c046b1b1461033d578063b0f479a114610368578063db04fa4914610393578063eab5b02c146103bc578063f2fde38b146103e557610109565b80637a6ee0cd1461029757806385572ffb146102c05780638da5cb5b146102e957806396d3b83d1461031457610109565b806351cff8d9116100d157806351cff8d9146101dd5780636159ada11461020657806375c67c661461024357806379ba50971461028057610109565b806301ffc9a71461010e578063263596a51461014b5780633aeac4e1146101775780634030d521146101a057610109565b3661010957005b600080fd5b34801561011a57600080fd5b50610135600480360381019061013091906118f4565b61040e565b604051610142919061193c565b60405180910390f35b34801561015757600080fd5b506101606104e0565b60405161016e929190611a00565b60405180910390f35b34801561018357600080fd5b5061019e60048036038101906101999190611a8e565b61057d565b005b3480156101ac57600080fd5b506101c760048036038101906101c29190611b0e565b61066d565b6040516101d4919061193c565b60405180910390f35b3480156101e957600080fd5b5061020460048036038101906101ff9190611b3b565b61068d565b005b34801561021257600080fd5b5061022d60048036038101906102289190611b3b565b61078b565b60405161023a919061193c565b60405180910390f35b34801561024f57600080fd5b5061026a60048036038101906102659190611b0e565b6107ab565b604051610277919061193c565b60405180910390f35b34801561028c57600080fd5b506102956107cb565b005b3480156102a357600080fd5b506102be60048036038101906102b99190611b9e565b610960565b005b3480156102cc57600080fd5b506102e760048036038101906102e29190611c29565b610ab7565b005b3480156102f557600080fd5b506102fe610b5c565b60405161030b9190611c81565b60405180910390f35b34801561032057600080fd5b5061033b60048036038101906103369190611cc8565b610b85565b005b34801561034957600080fd5b50610352610bd0565b60405161035f9190611d67565b60405180910390f35b34801561037457600080fd5b5061037d610bf6565b60405161038a9190611c81565b60405180910390f35b34801561039f57600080fd5b506103ba60048036038101906103b59190611cc8565b610c1e565b005b3480156103c857600080fd5b506103e360048036038101906103de9190611d82565b610c69565b005b3480156103f157600080fd5b5061040c60048036038101906104079190611b3b565b610ccc565b005b60007f85572ffb000000000000000000000000000000000000000000000000000000007bffffffffffffffffffffffffffffffffffffffffffffffffffffffff1916827bffffffffffffffffffffffffffffffffffffffffffffffffffffffff191614806104d957507f01ffc9a7000000000000000000000000000000000000000000000000000000007bffffffffffffffffffffffffffffffffffffffffffffffffffffffff1916827bffffffffffffffffffffffffffffffffffffffffffffffffffffffff1916145b9050919050565b6000606060025460038080546104f590611df1565b80601f016020809104026020016040519081016040528092919081815260200182805461052190611df1565b801561056e5780601f106105435761010080835404028352916020019161056e565b820191906000526020600020905b81548152906001019060200180831161055157829003601f168201915b50505050509050915091509091565b610585610ce0565b60008173ffffffffffffffffffffffffffffffffffffffff166370a08231306040518263ffffffff1660e01b81526004016105c09190611c81565b602060405180830381865afa1580156105dd573d6000803e3d6000fd5b505050506040513d601f19601f820116820180604052508101906106019190611e37565b90506000810361063d576040517fd0d04f6000000000000000000000000000000000000000000000000000000000815260040160405180910390fd5b61066883828473ffffffffffffffffffffffffffffffffffffffff16610d709092919063ffffffff16565b505050565b60056020528060005260406000206000915054906101000a900460ff1681565b610695610ce0565b6000479050600081036106d4576040517fd0d04f6000000000000000000000000000000000000000000000000000000000815260040160405180910390fd5b60008273ffffffffffffffffffffffffffffffffffffffff16826040516106fa90611e95565b60006040518083038185875af1925050503d8060008114610737576040519150601f19603f3d011682016040523d82523d6000602084013e61073c565b606091505b5050905080610786573383836040517f9d11f56300000000000000000000000000000000000000000000000000000000815260040161077d93929190611eb9565b60405180910390fd5b505050565b60066020528060005260406000206000915054906101000a900460ff1681565b60046020528060005260406000206000915054906101000a900460ff1681565b600160009054906101000a900473ffffffffffffffffffffffffffffffffffffffff1673ffffffffffffffffffffffffffffffffffffffff163373ffffffffffffffffffffffffffffffffffffffff161461085b576040517f08c379a000000000000000000000000000000000000000000000000000000000815260040161085290611f3c565b60405180910390fd5b60008060009054906101000a900473ffffffffffffffffffffffffffffffffffffffff169050336000806101000a81548173ffffffffffffffffffffffffffffffffffffffff021916908373ffffffffffffffffffffffffffffffffffffffff1602179055506000600160006101000a81548173ffffffffffffffffffffffffffffffffffffffff021916908373ffffffffffffffffffffffffffffffffffffffff1602179055503373ffffffffffffffffffffffffffffffffffffffff168173ffffffffffffffffffffffffffffffffffffffff167f8be0079c531659141344cd1fd0a4f28419497f9722a3daafe3b4186f6b6457e060405160405180910390a350565b600860009054906101000a900473ffffffffffffffffffffffffffffffffffffffff1673ffffffffffffffffffffffffffffffffffffffff166323b872dd3330876040518463ffffffff1660e01b81526004016109bf93929190611eb9565b600060405180830381600087803b1580156109d957600080fd5b505af11580156109ed573d6000803e3d6000fd5b50505050600860009054906101000a900473ffffffffffffffffffffffffffffffffffffffff1673ffffffffffffffffffffffffffffffffffffffff166342966c68856040518263ffffffff1660e01b8152600401610a4c9190611f5c565b600060405180830381600087803b158015610a6657600080fd5b505af1158015610a7a573d6000803e3d6000fd5b5050505060008484604051602001610a93929190611f77565b6040516020818303038152906040529050610aaf838383610df6565b505050505050565b7f000000000000000000000000000000000000000000000000000000000000000073ffffffffffffffffffffffffffffffffffffffff163373ffffffffffffffffffffffffffffffffffffffff1614610b4757336040517fd7f73334000000000000000000000000000000000000000000000000000000008152600401610b3e9190611c81565b60405180910390fd5b610b5981610b5490612303565b611237565b50565b60008060009054906101000a900473ffffffffffffffffffffffffffffffffffffffff16905090565b610b8d610ce0565b80600460008467ffffffffffffffff1667ffffffffffffffff16815260200190815260200160002060006101000a81548160ff0219169083151502179055505050565b600860009054906101000a900473ffffffffffffffffffffffffffffffffffffffff1681565b60007f0000000000000000000000000000000000000000000000000000000000000000905090565b610c26610ce0565b80600560008467ffffffffffffffff1667ffffffffffffffff16815260200190815260200160002060006101000a81548160ff0219169083151502179055505050565b610c71610ce0565b80600660008473ffffffffffffffffffffffffffffffffffffffff1673ffffffffffffffffffffffffffffffffffffffff16815260200190815260200160002060006101000a81548160ff0219169083151502179055505050565b610cd4610ce0565b610cdd816112fa565b50565b60008054906101000a900473ffffffffffffffffffffffffffffffffffffffff1673ffffffffffffffffffffffffffffffffffffffff163373ffffffffffffffffffffffffffffffffffffffff1614610d6e576040517f08c379a0000000000000000000000000000000000000000000000000000000008152600401610d6590612362565b60405180910390fd5b565b610df18363a9059cbb60e01b8484604051602401610d8f929190612382565b604051602081830303815290604052907bffffffffffffffffffffffffffffffffffffffffffffffffffffffff19166020820180517bffffffffffffffffffffffffffffffffffffffffffffffffffffffff8381831617835250505050611426565b505050565b6000610e00610ce0565b6000610e2f8484600760009054906101000a900473ffffffffffffffffffffffffffffffffffffffff166114ed565b905060003073ffffffffffffffffffffffffffffffffffffffff1663b0f479a16040518163ffffffff1660e01b8152600401602060405180830381865afa158015610e7e573d6000803e3d6000fd5b505050506040513d601f19601f82011682018060405250810190610ea291906123c0565b905060008173ffffffffffffffffffffffffffffffffffffffff166320487ded88856040518363ffffffff1660e01b8152600401610ee19291906125d8565b602060405180830381865afa158015610efe573d6000803e3d6000fd5b505050506040513d601f19601f82011682018060405250810190610f229190611e37565b9050600760009054906101000a900473ffffffffffffffffffffffffffffffffffffffff1673ffffffffffffffffffffffffffffffffffffffff166370a08231306040518263ffffffff1660e01b8152600401610f7f9190611c81565b602060405180830381865afa158015610f9c573d6000803e3d6000fd5b505050506040513d601f19601f82011682018060405250810190610fc09190611e37565b8111156110a157600760009054906101000a900473ffffffffffffffffffffffffffffffffffffffff1673ffffffffffffffffffffffffffffffffffffffff166370a08231306040518263ffffffff1660e01b81526004016110229190611c81565b602060405180830381865afa15801561103f573d6000803e3d6000fd5b505050506040513d601f19601f820116820180604052508101906110639190611e37565b816040517f8f0f4206000000000000000000000000000000000000000000000000000000008152600401611098929190612608565b60405180910390fd5b600760009054906101000a900473ffffffffffffffffffffffffffffffffffffffff1673ffffffffffffffffffffffffffffffffffffffff1663095ea7b383836040518363ffffffff1660e01b81526004016110fe929190612382565b6020604051808303816000875af115801561111d573d6000803e3d6000fd5b505050506040513d601f19601f820116820180604052508101906111419190612646565b508173ffffffffffffffffffffffffffffffffffffffff166396f4e9f988856040518363ffffffff1660e01b815260040161117d9291906125d8565b6020604051808303816000875af115801561119c573d6000803e3d6000fd5b505050506040513d601f19601f820116820180604052508101906111c09190612688565b93508667ffffffffffffffff16847fc152007fffdd6a8d0653f1b985d331733bbdcb8dbce0517251ca024a07ffdd908888600760009054906101000a900473ffffffffffffffffffffffffffffffffffffffff168660405161122594939291906126ff565b60405180910390a35050509392505050565b60008160600151806020019051810190611251919061279b565b9050600081602001519050600082600001519050600860009054906101000a900473ffffffffffffffffffffffffffffffffffffffff1673ffffffffffffffffffffffffffffffffffffffff16638a7fea8283836040518363ffffffff1660e01b81526004016112c2929190612382565b600060405180830381600087803b1580156112dc57600080fd5b505af11580156112f0573d6000803e3d6000fd5b5050505050505050565b3373ffffffffffffffffffffffffffffffffffffffff168173ffffffffffffffffffffffffffffffffffffffff1603611368576040517f08c379a000000000000000000000000000000000000000000000000000000000815260040161135f90612814565b60405180910390fd5b80600160006101000a81548173ffffffffffffffffffffffffffffffffffffffff021916908373ffffffffffffffffffffffffffffffffffffffff1602179055508073ffffffffffffffffffffffffffffffffffffffff1660008054906101000a900473ffffffffffffffffffffffffffffffffffffffff1673ffffffffffffffffffffffffffffffffffffffff167fed8889f560326eb138920d842192f0eb3dd22b4f139c87a2c57538e05bae127860405160405180910390a350565b6000611488826040518060400160405280602081526020017f5361666545524332303a206c6f772d6c6576656c2063616c6c206661696c65648152508573ffffffffffffffffffffffffffffffffffffffff166115c79092919063ffffffff16565b90506000815111156114e857808060200190518101906114a89190612646565b6114e7576040517f08c379a00000000000000000000000000000000000000000000000000000000081526004016114de906128a6565b60405180910390fd5b5b505050565b6114f5611813565b6040518060a00160405280856040516020016115119190611c81565b6040516020818303038152906040528152602001848152602001600067ffffffffffffffff81111561154657611545611fa5565b5b60405190808252806020026020018201604052801561157f57816020015b61156c611858565b8152602001906001900390816115645790505b5081526020018373ffffffffffffffffffffffffffffffffffffffff1681526020016115bb604051806020016040528062030d408152506115df565b81525090509392505050565b60606115d6848460008561165e565b90509392505050565b60606397a657c960e01b826040516024016115fa91906128e2565b604051602081830303815290604052907bffffffffffffffffffffffffffffffffffffffffffffffffffffffff19166020820180517bffffffffffffffffffffffffffffffffffffffffffffffffffffffff83818316178352505050509050919050565b6060824710156116a3576040517f08c379a000000000000000000000000000000000000000000000000000000000815260040161169a9061296f565b60405180910390fd5b6000808673ffffffffffffffffffffffffffffffffffffffff1685876040516116cc91906129c0565b60006040518083038185875af1925050503d8060008114611709576040519150601f19603f3d011682016040523d82523d6000602084013e61170e565b606091505b509150915061171f8783838761172b565b92505050949350505050565b6060831561178d57600083510361178557611745856117a0565b611784576040517f08c379a000000000000000000000000000000000000000000000000000000000815260040161177b90612a23565b60405180910390fd5b5b829050611798565b61179783836117c3565b5b949350505050565b6000808273ffffffffffffffffffffffffffffffffffffffff163b119050919050565b6000825111156117d65781518083602001fd5b806040517f08c379a000000000000000000000000000000000000000000000000000000000815260040161180a9190612a43565b60405180910390fd5b6040518060a00160405280606081526020016060815260200160608152602001600073ffffffffffffffffffffffffffffffffffffffff168152602001606081525090565b6040518060400160405280600073ffffffffffffffffffffffffffffffffffffffff168152602001600081525090565b6000604051905090565b600080fd5b600080fd5b60007fffffffff0000000000000000000000000000000000000000000000000000000082169050919050565b6118d18161189c565b81146118dc57600080fd5b50565b6000813590506118ee816118c8565b92915050565b60006020828403121561190a57611909611892565b5b6000611918848285016118df565b91505092915050565b60008115159050919050565b61193681611921565b82525050565b6000602082019050611951600083018461192d565b92915050565b6000819050919050565b61196a81611957565b82525050565b600081519050919050565b600082825260208201905092915050565b60005b838110156119aa57808201518184015260208101905061198f565b60008484015250505050565b6000601f19601f8301169050919050565b60006119d282611970565b6119dc818561197b565b93506119ec81856020860161198c565b6119f5816119b6565b840191505092915050565b6000604082019050611a156000830185611961565b8181036020830152611a2781846119c7565b90509392505050565b600073ffffffffffffffffffffffffffffffffffffffff82169050919050565b6000611a5b82611a30565b9050919050565b611a6b81611a50565b8114611a7657600080fd5b50565b600081359050611a8881611a62565b92915050565b60008060408385031215611aa557611aa4611892565b5b6000611ab385828601611a79565b9250506020611ac485828601611a79565b9150509250929050565b600067ffffffffffffffff82169050919050565b611aeb81611ace565b8114611af657600080fd5b50565b600081359050611b0881611ae2565b92915050565b600060208284031215611b2457611b23611892565b5b6000611b3284828501611af9565b91505092915050565b600060208284031215611b5157611b50611892565b5b6000611b5f84828501611a79565b91505092915050565b6000819050919050565b611b7b81611b68565b8114611b8657600080fd5b50565b600081359050611b9881611b72565b92915050565b60008060008060808587031215611bb857611bb7611892565b5b6000611bc687828801611b89565b9450506020611bd787828801611a79565b9350506040611be887828801611af9565b9250506060611bf987828801611a79565b91505092959194509250565b600080fd5b600060a08284031215611c2057611c1f611c05565b5b81905092915050565b600060208284031215611c3f57611c3e611892565b5b600082013567ffffffffffffffff811115611c5d57611c5c611897565b5b611c6984828501611c0a565b91505092915050565b611c7b81611a50565b82525050565b6000602082019050611c966000830184611c72565b92915050565b611ca581611921565b8114611cb057600080fd5b50565b600081359050611cc281611c9c565b92915050565b60008060408385031215611cdf57611cde611892565b5b6000611ced85828601611af9565b9250506020611cfe85828601611cb3565b9150509250929050565b6000819050919050565b6000611d2d611d28611d2384611a30565b611d08565b611a30565b9050919050565b6000611d3f82611d12565b9050919050565b6000611d5182611d34565b9050919050565b611d6181611d46565b82525050565b6000602082019050611d7c6000830184611d58565b92915050565b60008060408385031215611d9957611d98611892565b5b6000611da785828601611a79565b9250506020611db885828601611cb3565b9150509250929050565b7f4e487b7100000000000000000000000000000000000000000000000000000000600052602260045260246000fd5b60006002820490506001821680611e0957607f821691505b602082108103611e1c57611e1b611dc2565b5b50919050565b600081519050611e3181611b72565b92915050565b600060208284031215611e4d57611e4c611892565b5b6000611e5b84828501611e22565b91505092915050565b600081905092915050565b50565b6000611e7f600083611e64565b9150611e8a82611e6f565b600082019050919050565b6000611ea082611e72565b9150819050919050565b611eb381611b68565b82525050565b6000606082019050611ece6000830186611c72565b611edb6020830185611c72565b611ee86040830184611eaa565b949350505050565b7f4d7573742062652070726f706f736564206f776e657200000000000000000000600082015250565b6000611f2660168361197b565b9150611f3182611ef0565b602082019050919050565b60006020820190508181036000830152611f5581611f19565b9050919050565b6000602082019050611f716000830184611eaa565b92915050565b6000604082019050611f8c6000830185611eaa565b611f996020830184611c72565b9392505050565b600080fd5b7f4e487b7100000000000000000000000000000000000000000000000000000000600052604160045260246000fd5b611fdd826119b6565b810181811067ffffffffffffffff82111715611ffc57611ffb611fa5565b5b80604052505050565b600061200f611888565b905061201b8282611fd4565b919050565b600080fd5b61202e81611957565b811461203957600080fd5b50565b60008135905061204b81612025565b92915050565b600080fd5b600080fd5b600067ffffffffffffffff82111561207657612075611fa5565b5b61207f826119b6565b9050602081019050919050565b82818337600083830152505050565b60006120ae6120a98461205b565b612005565b9050828152602081018484840111156120ca576120c9612056565b5b6120d584828561208c565b509392505050565b600082601f8301126120f2576120f1612051565b5b813561210284826020860161209b565b91505092915050565b600067ffffffffffffffff82111561212657612125611fa5565b5b602082029050602081019050919050565b600080fd5b60006040828403121561215257612151611fa0565b5b61215c6040612005565b9050600061216c84828501611a79565b600083015250602061218084828501611b89565b60208301525092915050565b600061219f61219a8461210b565b612005565b905080838252602082019050604084028301858111156121c2576121c1612137565b5b835b818110156121eb57806121d7888261213c565b8452602084019350506040810190506121c4565b5050509392505050565b600082601f83011261220a57612209612051565b5b813561221a84826020860161218c565b91505092915050565b600060a0828403121561223957612238611fa0565b5b61224360a0612005565b905060006122538482850161203c565b600083015250602061226784828501611af9565b602083015250604082013567ffffffffffffffff81111561228b5761228a612020565b5b612297848285016120dd565b604083015250606082013567ffffffffffffffff8111156122bb576122ba612020565b5b6122c7848285016120dd565b606083015250608082013567ffffffffffffffff8111156122eb576122ea612020565b5b6122f7848285016121f5565b60808301525092915050565b600061230f3683612223565b9050919050565b7f4f6e6c792063616c6c61626c65206279206f776e657200000000000000000000600082015250565b600061234c60168361197b565b915061235782612316565b602082019050919050565b6000602082019050818103600083015261237b8161233f565b9050919050565b60006040820190506123976000830185611c72565b6123a46020830184611eaa565b9392505050565b6000815190506123ba81611a62565b92915050565b6000602082840312156123d6576123d5611892565b5b60006123e4848285016123ab565b91505092915050565b6123f681611ace565b82525050565b600081519050919050565b600082825260208201905092915050565b6000612423826123fc565b61242d8185612407565b935061243d81856020860161198c565b612446816119b6565b840191505092915050565b600081519050919050565b600082825260208201905092915050565b6000819050602082019050919050565b61248681611a50565b82525050565b61249581611b68565b82525050565b6040820160008201516124b1600085018261247d565b5060208201516124c4602085018261248c565b50505050565b60006124d6838361249b565b60408301905092915050565b6000602082019050919050565b60006124fa82612451565b612504818561245c565b935061250f8361246d565b8060005b8381101561254057815161252788826124ca565b9750612532836124e2565b925050600181019050612513565b5085935050505092915050565b600060a083016000830151848203600086015261256a8282612418565b915050602083015184820360208601526125848282612418565b9150506040830151848203604086015261259e82826124ef565b91505060608301516125b3606086018261247d565b50608083015184820360808601526125cb8282612418565b9150508091505092915050565b60006040820190506125ed60008301856123ed565b81810360208301526125ff818461254d565b90509392505050565b600060408201905061261d6000830185611eaa565b61262a6020830184611eaa565b9392505050565b60008151905061264081611c9c565b92915050565b60006020828403121561265c5761265b611892565b5b600061266a84828501612631565b91505092915050565b60008151905061268281612025565b92915050565b60006020828403121561269e5761269d611892565b5b60006126ac84828501612673565b91505092915050565b600082825260208201905092915050565b60006126d1826123fc565b6126db81856126b5565b93506126eb81856020860161198c565b6126f4816119b6565b840191505092915050565b60006080820190506127146000830187611c72565b818103602083015261272681866126c6565b90506127356040830185611c72565b6127426060830184611eaa565b95945050505050565b60006040828403121561276157612760611fa0565b5b61276b6040612005565b9050600061277b84828501611e22565b600083015250602061278f848285016123ab565b60208301525092915050565b6000604082840312156127b1576127b0611892565b5b60006127bf8482850161274b565b91505092915050565b7f43616e6e6f74207472616e7366657220746f2073656c66000000000000000000600082015250565b60006127fe60178361197b565b9150612809826127c8565b602082019050919050565b6000602082019050818103600083015261282d816127f1565b9050919050565b7f5361666545524332303a204552433230206f7065726174696f6e20646964206e60008201527f6f74207375636365656400000000000000000000000000000000000000000000602082015250565b6000612890602a8361197b565b915061289b82612834565b604082019050919050565b600060208201905081810360008301526128bf81612883565b9050919050565b6020820160008201516128dc600085018261248c565b50505050565b60006020820190506128f760008301846128c6565b92915050565b7f416464726573733a20696e73756666696369656e742062616c616e636520666f60008201527f722063616c6c0000000000000000000000000000000000000000000000000000602082015250565b600061295960268361197b565b9150612964826128fd565b604082019050919050565b600060208201905081810360008301526129888161294c565b9050919050565b600061299a826123fc565b6129a48185611e64565b93506129b481856020860161198c565b80840191505092915050565b60006129cc828461298f565b915081905092915050565b7f416464726573733a2063616c6c20746f206e6f6e2d636f6e7472616374000000600082015250565b6000612a0d601d8361197b565b9150612a18826129d7565b602082019050919050565b60006020820190508181036000830152612a3c81612a00565b9050919050565b60006020820190508181036000830152612a5d81846119c7565b90509291505056fea2646970667358221220323bbd8ef2b24dde0b9e06ee3060496d18a60da16adba8671f7990dfc8501c5064736f6c634300081c0033",
  "devdoc": {
    "kind": "dev",
    "methods": {
      "allowlistDestinationChain(uint64,bool)": {
        "details": "Updates the allowlist status of a destination chain for transactions."
      },
      "allowlistSender(address,bool)": {
        "details": "Updates the allowlist status of a sender for transactions."
      },
      "allowlistSourceChain(uint64,bool)": {
        "details": "Updates the allowlist status of a source chain for transactions."
      },
      "ccipReceive((bytes32,uint64,bytes,bytes,(address,uint256)[]))": {
        "details": "Note ensure you check the msg.sender is the OffRampRouter",
        "params": {
          "message": "CCIP Message"
        }
      },
      "constructor": {
        "params": {
          "_link": "The address of the link contract.",
          "_router": "The address of the router contract."
        }
      },
      "getLastReceivedMessageDetails()": {
        "returns": {
          "messageId": "The ID of the last received message.",
          "text": "The last received text."
        }
      },
      "getRouter()": {
        "returns": {
          "_0": "CCIP router address"
        }
      },
      "supportsInterface(bytes4)": {
        "details": "Should indicate whether the contract implements IAny2EVMMessageReceiver e.g. return interfaceId == type(IAny2EVMMessageReceiver).interfaceId || interfaceId == type(IERC165).interfaceId This allows CCIP to check if ccipReceive is available before calling it. If this returns false or reverts, only tokens are transferred to the receiver. If this returns true, tokens are transferred and ccipReceive is called atomically. Additionally, if the receiver address does not have code associated with it at the time of execution (EXTCODESIZE returns 0), only tokens will be transferred.",
        "params": {
          "interfaceId": "The interfaceId to check"
        },
        "returns": {
          "_0": "true if the interfaceId is supported"
        }
      },
      "withdraw(address)": {
        "details": "This function reverts if there are no funds to withdraw or if the transfer fails. It should only be callable by the owner of the contract.",
        "params": {
          "_beneficiary": "The address to which the Ether should be sent."
        }
      },
      "withdrawToken(address,address)": {
        "details": "This function reverts with a 'NothingToWithdraw' error if there are no tokens to withdraw.",
        "params": {
          "_beneficiary": "The address to which the tokens will be sent.",
          "_token": "The contract address of the ERC20 token to be withdrawn."
        }
      }
    },
    "title": "- A simple messenger contract for sending/receving string data across chains.",
    "version": 1
  },
  "userdoc": {
    "kind": "user",
    "methods": {
      "acceptOwnership()": {
        "notice": "Allows an ownership transfer to be completed by the recipient."
      },
      "ccipReceive((bytes32,uint64,bytes,bytes,(address,uint256)[]))": {
        "notice": "Called by the Router to deliver a message. If this reverts, any token transfers also revert. The message will move to a FAILED state and become available for manual execution."
      },
      "constructor": {
        "notice": "Constructor initializes the contract with the router address."
      },
      "getLastReceivedMessageDetails()": {
        "notice": "Fetches the details of the last received message."
      },
      "getRouter()": {
        "notice": "Return the current router"
      },
      "owner()": {
        "notice": "Get the current owner"
      },
      "supportsInterface(bytes4)": {
        "notice": "IERC165 supports an interfaceId"
      },
      "transferOwnership(address)": {
        "notice": "Allows an owner to begin transferring ownership to a new address."
      },
      "withdraw(address)": {
        "notice": "Allows the contract owner to withdraw the entire balance of Ether from the contract."
      },
      "withdrawToken(address,address)": {
        "notice": "Allows the owner of the contract to withdraw all tokens of a specific ERC20 token."
      }
    },
    "version": 1
  },
  "storageLayout": {
    "storage": [
      {
        "astId": 270,
        "contract": "contracts/NFTPoolBurnAndMint.sol:NFTPoolBurnAndMint",
        "label": "s_owner",
        "offset": 0,
        "slot": "0",
        "type": "t_address"
      },
      {
        "astId": 272,
        "contract": "contracts/NFTPoolBurnAndMint.sol:NFTPoolBurnAndMint",
        "label": "s_pendingOwner",
        "offset": 0,
        "slot": "1",
        "type": "t_address"
      },
      {
        "astId": 4948,
        "contract": "contracts/NFTPoolBurnAndMint.sol:NFTPoolBurnAndMint",
        "label": "s_lastReceivedMessageId",
        "offset": 0,
        "slot": "2",
        "type": "t_bytes32"
      },
      {
        "astId": 4950,
        "contract": "contracts/NFTPoolBurnAndMint.sol:NFTPoolBurnAndMint",
        "label": "s_lastReceivedText",
        "offset": 0,
        "slot": "3",
        "type": "t_string_storage"
      },
      {
        "astId": 4954,
        "contract": "contracts/NFTPoolBurnAndMint.sol:NFTPoolBurnAndMint",
        "label": "allowlistedDestinationChains",
        "offset": 0,
        "slot": "4",
        "type": "t_mapping(t_uint64,t_bool)"
      },
      {
        "astId": 4958,
        "contract": "contracts/NFTPoolBurnAndMint.sol:NFTPoolBurnAndMint",
        "label": "allowlistedSourceChains",
        "offset": 0,
        "slot": "5",
        "type": "t_mapping(t_uint64,t_bool)"
      },
      {
        "astId": 4962,
        "contract": "contracts/NFTPoolBurnAndMint.sol:NFTPoolBurnAndMint",
        "label": "allowlistedSenders",
        "offset": 0,
        "slot": "6",
        "type": "t_mapping(t_address,t_bool)"
      },
      {
        "astId": 4965,
        "contract": "contracts/NFTPoolBurnAndMint.sol:NFTPoolBurnAndMint",
        "label": "s_linkToken",
        "offset": 0,
        "slot": "7",
        "type": "t_contract(IERC20)534"
      },
      {
        "astId": 4968,
        "contract": "contracts/NFTPoolBurnAndMint.sol:NFTPoolBurnAndMint",
        "label": "wnft",
        "offset": 0,
        "slot": "8",
        "type": "t_contract(WrappedMyToken)5839"
      }
    ],
    "types": {
      "t_address": {
        "encoding": "inplace",
        "label": "address",
        "numberOfBytes": "20"
      },
      "t_bool": {
        "encoding": "inplace",
        "label": "bool",
        "numberOfBytes": "1"
      },
      "t_bytes32": {
        "encoding": "inplace",
        "label": "bytes32",
        "numberOfBytes": "32"
      },
      "t_contract(IERC20)534": {
        "encoding": "inplace",
        "label": "contract IERC20",
        "numberOfBytes": "20"
      },
      "t_contract(WrappedMyToken)5839": {
        "encoding": "inplace",
        "label": "contract WrappedMyToken",
        "numberOfBytes": "20"
      },
      "t_mapping(t_address,t_bool)": {
        "encoding": "mapping",
        "key": "t_address",
        "label": "mapping(address => bool)",
        "numberOfBytes": "32",
        "value": "t_bool"
      },
      "t_mapping(t_uint64,t_bool)": {
        "encoding": "mapping",
        "key": "t_uint64",
        "label": "mapping(uint64 => bool)",
        "numberOfBytes": "32",
        "value": "t_bool"
      },
      "t_string_storage": {
        "encoding": "bytes",
        "label": "string",
        "numberOfBytes": "32"
      },
      "t_uint64": {
        "encoding": "inplace",
        "label": "uint64",
        "numberOfBytes": "8"
      }
    }
  }
}